:020000040800F2
:100000007025002049010008E3280008531A000861
:10001000E1280008ED0A0008A92B000800000000F4
:10002000000000000000000000000000E7280008B9
:10003000EF0A000800000000E5280008E928000891
:100040006301000863010008630100086301000800
:1000500063010008630100086301000863010008F0
:1000600063010008630100086301000863010008E0
:1000700063010008630100086301000863010008D0
:1000800063010008630100086301000863010008C0
:1000900063010008630100086301000863010008B0
:1000A00063010008630100086301000863010008A0
:1000B0006301000863010008630100086301000890
:1000C0006301000863010008630100086301000880
:1000D000630100089D2B000863010008630100080C
:1000E0006301000863010008630100086301000860
:1000F0006301000863010008630100086301000850
:10010000630100086301000863010008630100083F
:10011000630100086301000863010008630100082F
:10012000630100086301000863010008630100081F
:10013000DFF810D000F0C8FC00480047BD3B0008C5
:10014000AFF300807025002006488047064800472E
:10015000FEE7FEE7FEE7FEE7FEE7FEE7FEE7FEE777
:10016000FEE7FEE74B29000831010008202A04DBE6
:10017000203A21FA02F00021704721FA02F3D04020
:10018000C2F120029140084319467047D2B201E003
:1001900000F8012B491EFBD270470022F6E710B58C
:1001A00013460A4604461946FFF7F0FF204610BDE5
:1001B000F0B480EA0102D40F4200B2EB410F02D248
:1001C0000246084611464A0042D0C30DDDB2C1F3D3
:1001D000C752AD1A202D35DAC1F3160141F40002E1
:1001E00004B15242C5F1200602FA06F12A41104438
:1001F000B3EBD05F23D0C4B1012DA0EBC35009DC19
:10020000F0BC4FF0004202EAC352DBB200F500003E
:1002100000F087BB400000F1807000EBC350A0F1FC
:10022000807040EAD170490009E0490841EAC07194
:10023000A0EBC35000F50000400800EBC350F0BC39
:1002400000F066BB6142012202EB4101001BF6E7B0
:10025000F0BC704781F00041AAE780F00040A7E7BA
:1002600080EA010210B502F00043400022D04A00AB
:100270001FD0010E01EB1261C0F35600C2F356020B
:1002800040F4000042F40002A0FB022000047F3989
:10029000140400D0401C50EA124001D44000491E12
:1002A000C2B20C0604EBD010401C4008802A02D0D9
:1002B00003E0002010BD20F00100002900DA00203A
:1002C000184310BD30B480EA010202F0004530F05E
:1002D000004221F0004013D090B1C30DD40DC2F301
:1002E0001601C0F31600E41A41F4000140F40002C4
:1002F0007D34914201D3641C00E04900002C02DAF5
:1003000030BC002070474FF400000023914201D31D
:10031000891A034340084FEA4101F7D151B1914294
:1003200002D14FF0004105E002D24FF0010101E09F
:100330006FF0010103EBC450284430BC00F0E8BA70
:10034000420005D0C0F3C7525242914201DC002066
:10035000704700EBC15070472DE9FE4F804681EA9F
:100360000300C00F0C46009021F0004123F000452F
:10037000B8EB0200A94105D24046214690461C46F2
:100380000B46024623F00040104347D0270DC7F329
:100390000A00C3F30A510290401A019040286BDA18
:1003A000C3F3130040F4801B0098924620B1002351
:1003B000D2EB030A63EB0B0B01985946C0F14002E4
:1003C000504600F084FA06460D4650465946019ABA
:1003D00000F08CFA10EB08006141002487EA11520A
:1003E00084EAE7731A4340D0009A62B3019A012A63
:1003F0004FEA075215DC001B61EB02014FF000428F
:1004000002EA0752CDE90042001C41F58011324654
:100410002B4600F0F2FA03B0BDE8F08F40462146CB
:10042000F9E7001B61EB0201001C41F58013001885
:100430005B412018A2F5001747EB030140EAD57095
:10044000B6196D4111E06D084FEA360645EAC075F0
:100450004FEA0752001B61EB0201001C41F58011BD
:1004600049084FEA30000019514132462B4603B08B
:10047000BDE8F04F00F0B2BA00980122400000231E
:10048000D0EB020263EBE073009821464FEAE07480
:10049000B8EB000061EB0401E9E783F000435BE7A0
:1004A00081F0004158E72DE9FE4F81EA030404F092
:1004B000004421F0004100944FF0000B23F0004372
:1004C00050EA01045ED052EA03045BD0C3F30A543D
:1004D000C1F30A552C44A4F2F3340194A0FB025456
:1004E000C1F3130141F48011C3F3130343F48013E8
:1004F00001FB024400FB034E840A970A44EA81543C
:1005000047EA8357A4FB076802958D0A05FB078518
:100510004FEA932C04FB0C542705029D4FEA065822
:1005200047EA1637B5EB08056EEB070C870E920EFF
:1005300047EA811742EA8312A7FB0201B6EB0B01DF
:1005400064EB00042B0D43EA0C335E1844EB1C50A3
:10055000DA465146E7FB0201C5F313044FEA0B33B9
:1005600043EA14534FEA0432019C43EA0603A4F120
:100570000C040294009CCDE900B400F03EFA03B0F4
:10058000BDE8F08F00200146F9E72DE9F04D81EA42
:10059000030404F0004B21F0004514464FF0000A1C
:1005A00023F0004150EA050220D054EA01021DD098
:1005B000C5F30A570246C5F31303C1F31300C1F391
:1005C0000A5640F4801543F48013A7EB0608101B6D
:1005D000D64608F2FD3873EB050002D308F1010896
:1005E00001E092185B41B8F1000F03DA00200146E8
:1005F000BDE8F08D00204FF48011064684460EE0E1
:10060000171B73EB050705D3121B63EB05030643AA
:100610004CEA010C49084FEA300092185B4150EA5D
:100620000107EDD152EA030012D082EA040083EA06
:100630000501084305D0101BAB4106D2012200235F
:1006400006E000224FF0004302E06FF00102531079
:100650001AEB06004CEB085110EB0A0041EB0B01C2
:10066000BDE8F04D00F0BAB970B521F00043034386
:100670000CD0C1F30A550024D5EB040564EB040348
:10068000D617AD1AB34102DB0020014670BD201819
:1006900041EB025170BDC10F80EAE0700844CA0707
:1006A0009623002100F03DB996230022114600F068
:1006B00038B90EB5C10F80EAE0700844CA070021BE
:1006C00040F233438DE80E000A460B4600F095F9E0
:1006D00003B000BD00F0004220F00040C10DC0F3A7
:1006E000160040F400007F2901DA002070479629A7
:1006F00003DCC1F19601C84001E096398840002A28
:10070000F4D04042704720F00040C10DC0F3160005
:1007100040F400007F2901DA00207047962903DCAD
:10072000C1F19601C840704796398840704770B54E
:10073000C1F30A5201F000450024C1F3130140F255
:10074000FF3341F480119A4201DA002070BD40F27B
:1007500033439A42A2F2334203DC5242FFF706FDD2
:1007600000E090402C43F1D0404270BD00F00042C8
:1007700030F000400AD0C10D01F56071C0F31600E1
:1007800042EA0151C2084007114370470020014668
:100790007047000030B5041E71F1000404DB4FF017
:1007A0000044404264EB0101141E73F1000405DBB8
:1007B0001C464FF00043524263EB04038B4208BFD8
:1007C000824230BD30B5041E71F1000404DB4FF0ED
:1007D0000044404264EB0101141E73F1000405DB88
:1007E0001C464FF00043524263EB0403994208BF9A
:1007F000904230BD01F0004330B421F0004150EA96
:10080000010206D00A0DA2F56072C1F31301002A9D
:1008100002DC30BC00207047440F44EAC104C10030
:10082000E01830BC00EBC25000F072B8002801DBC9
:10083000C0F10040002901DBC1F100418142704755
:1008400030B50B46014600202022012409E021FAA0
:1008500002F59D4205D303FA02F5491B04FA02F59D
:100860002844151EA2F10102F1DC30BD2DE9F05F34
:100870000546002092469B4688460646814640240F
:100880001BE02846414647462246FFF76FFC534689
:100890005A46C01A914110D311461846224600F01C
:1008A00016F82D1A67EB01084F4622460120002159
:1008B00000F00DF817EB00094E41201EA4F10104D1
:1008C000DFDC484631462A464346BDE8F09F202AF1
:1008D00004DB203A00FA02F1002070479140C2F197
:1008E000200320FA03F3194390407047202A06DBC7
:1008F000CB17203A41FA02F043EAE07306E041FAEE
:1009000002F3D040C2F120029140084319467047DB
:100910000029A8BF7047401C490008BF20F0010013
:10092000704710B4B0FA80FC00FA0CF050EA0104F1
:1009300004BF10BC704749B1CCF1200421FA04F483
:1009400011FA0CF118BF012121430843A3EB0C015C
:10095000CB1D4FEA00614FEA102042BF002010BCBF
:10096000704700EBC35010440029A4BF10BC70476F
:10097000401C490008BF20F0010010BC7047F0B4D3
:10098000002802DCF0BC00207047C0F3C751C0F360
:10099000160040F40000CA0701D14000491E3F2262
:1009A00002EB6105002211464FF4000626FA01F31E
:1009B0001344D418844201D8001B1A464000491C35
:1009C0001729F3DD5100814202D24FF0FF3100E0E0
:1009D000002102EBC550F0BCFFF79ABF10B5141E02
:1009E00073F1000408DA401C41F1000192185B41E8
:1009F0001A4301D120F0010010BD2DE9F04D9246BF
:100A00009B4611B1B1FA81F202E0B0FA80F22032D5
:100A10009046FFF75CFF04460F4640EA0A0041EAB1
:100A20000B0153465A46084313D0114653EA0100BE
:100A300019D0C8F140025046FFF798FB05460E4614
:100A4000504659464246FFF742FF084305D0012071
:100A500004E020463946BDE8F08D0020054346EA13
:100A6000E0762C4337430A986305E40AA0EB0800BC
:100A70000022FD0A44EA47540A3002D5002001460C
:100A8000E9E7010510196941DDE9084500196941E7
:100A9000BDE8F04DA2E7C1F30A52C1F3130140F2E1
:100AA000FF3341F480119A4202DA00200146704778
:100AB00040F233439A42A2F2334202DC5242FFF741
:100AC00055BBFFF704BF0000064C074D06E0E06889
:100AD00040F0010394E8070098471034AC42F6D385
:100AE000FFF72AFB308A0008508A0008FEE77047AB
:100AF0002DE9F0470D46089F81461C4616463946AB
:100B00001046FFF7ADFB804621462846FFF7A8FBBD
:100B10004146FFF79FFB804621463046FFF7A0FB8A
:100B2000044639462846FFF79BFB2146FFF740FB6A
:100B3000C9E90080BDE8F08772B6FEE72DE9F04F05
:100B4000002189B005464FF4807340F2FF140A4635
:100B50008A420FDA05EBC100D0E90067CDE90467EE
:100B600005EBC206D6E9007CC0E9007CDDE904079C
:100B7000C6E90007184603E0091A00EBD0704010E0
:100B80008842F9DD521C0144A242E1DB4FF40070BF
:100B9000012101E009F1010100EBD070401089460C
:100BA0000128F7D168E000BFA8F10101022000FA96
:100BB00001FB0BEBDB704FEA600A4FF07E500190B7
:100BC000002002905046FFF774FD02460B462D4868
:100BD0002D49FFF7DAFC0C46064602F003F8FFF752
:100BE00009FE03903046214602F00AF8FFF702FEA4
:100BF00080F000400790AAF101000026069037E03F
:100C0000344629E0029804EB0A07009005EBC70080
:100C10000890D0E9001204A8019BFFF769FF55F87E
:100C200034000499FFF716FB45F8370005EBC407BD
:100C300005997868FFF70EFB01460898416055F862
:100C400034000499FFF7B4FA45F834000599786840
:100C5000FFF7AEFA5C447860B4F5007FD2DB07980A
:100C6000009001A890E80E00FFF742FF0698761C5E
:100C70008642C5DD08F101008046484594DD09B093
:100C8000BDE8F08F182D4454FB21094010B590F8B1
:100C900021100022022905D00421816380F8202040
:100CA000012010BD01680B6823F00E030B60016882
:100CB0000B6823F001030B6090F84030C46B0121F6
:100CC00001FA03F3636080F8211080F820201046B9
:100CD00010BD00002DE9F05F90F8211000240229DA
:100CE00003D004218163012485E001680A6822F0B1
:100CF0000E020A6001680A6822F001020A603F4E93
:100D00003E4FB215DFF8F4C0DFF8F090DFF8ECA04A
:100D1000DFF8E8B0DFF8E4E00168783F130115027E
:100D2000ACF1640CA9F15009AAF13C0AABF1280B13
:100D3000AEF1140E4FF48018B14227D9B9420ED04B
:100D4000614512D049451DD0514518D0594518D09C
:100D5000714501D1424615E0294EB14201D101222F
:100D600010E0274E1436B14201D110220AE0244E81
:100D70002836B14206D0224A3C32914201D11A466D
:100D800000E02A461E49091F0A602BE0B94213D031
:100D9000614517D0494522D051451DD059451DD038
:100DA000714501D142461AE0B14202D14FF0807242
:100DB00015E0134EB14201D1012210E0104E14365D
:100DC000B14201D110220AE00D4E2836B14206D0C0
:100DD0000B4A3C32914201D11A4600E02A460749AB
:100DE00080394A60012180F82110002180F820100C
:100DF000416B01B188472046BDE8F09F800002406A
:100E00000804024070B5044600F014F90546601C61
:100E100002D004480078044400F00CF9401BA042C2
:100E2000FAD370BD000000202DE9F84FDFF8C8911B
:100E30000024A9F1040B23460F2709F1040AABF1A2
:100E4000040ED1E00125A54006EA0502AA4276D1AA
:100E5000DFF8A8C14E68A6EB0C0866452BD00DDC68
:100E6000032E34D005DC36B3012E19D0022E2FD13B
:100E70001BE0112E16D0122E2AD119E0B8F5881FCA
:100E800019D006DCB8F5803F15D0B8F5801F1FD10A
:100E900011E0B8F5001F0ED0B8F5041F18D10AE014
:100EA000CB6815E0CB681B1D12E0CB6808330FE060
:100EB000CB680C330CE08B682BB1012B4FF008038F
:100EC00003D0456104E0042302E0056100E0002353
:100ED000FF2A01D8064601E000F104064FEA840526
:100EE00001D9A5F12005D6F8008007FA05FC28EA0B
:100EF0000C0803FA05F548EA0508C6F800804D68B5
:100F0000ED0070D53E4DAE6946F00106AE61AD69AB
:100F100024F0030605F0010500953A4D06EB050C9B
:100F2000DCF80850A607360F07FA06F825EA080588
:100F3000DFF8D480404503D14FF0000825E052E0AF
:100F4000DFF8C880404502D14FF001081DE0DFF80E
:100F5000C080404502D14FF0020816E0DFF8B480AF
:100F6000404502D14FF003080FE0DFF8AC80404568
:100F700002D14FF0040808E0DFF8A080404502D11C
:100F80004FF0050801E04FF0060808FA06F848EAB5
:100F90000508CCF808804D68D9F80060ED024D4690
:100FA00001D5164300E096432E604D68DAF80060E4
:100FB000AD02554601D5164300E096432E604D68BC
:100FC000DBF80060AD035D4601D5164300E09643B3
:100FD0002E604D68DEF80060ED03754601D51643BE
:100FE00000E096432E60641C0A681646E2407FF4D7
:100FF00029AFBDE8F88F000008040140000011107F
:10100000001002400000014000080140000C0140B7
:10101000001001400014014000180140001C014074
:101020008068084000D0012070470AB10161704714
:101030000904FBE7014880687047000000000020B9
:1010400002488168027811448160704700000020E6
:10105000074810B5016841F010010160032000F05D
:101060006DF80F2000F006F800F024F8002010BD05
:101070000020024070B50D4D04464FF47A71287877
:10108000B1FBF0F00A490968B1FBF0F000F0D4FAC6
:1010900048B9102C07D200222146501E00F02EF82D
:1010A00000206C6070BD012070BD000000000020B9
:1010B0000C000020094808B5816941F001018161F7
:1010C000816901F001010091C16941F08051C16164
:1010D000C06900F08050009008BD00000010024080
:1010E000002809DB00F01F02012191404009800027
:1010F00000F1E020C0F8001170470000F0B40E4B82
:101100001B680C46C3F30223C3F10705042D00D965
:101110000425191D072901D2002300E0DB1E01264A
:1011200006FA05F1491E214099409E40761E164060
:101130003143F0BC01F056BE0CED00E0064900F072
:10114000070208684FF6FF03184040EA0220034AEE
:1011500010430860704700000CED00E00000FA0545
:101160002DE9F0470F46050061D0434E306800F08E
:101170000700B84209D2306820F0070038433060D9
:10118000306800F00700B84251D128683B4C810715
:1011900012D5400703D5606840F4E06060602878AD
:1011A000000703D5606840F4605060606068A9681B
:1011B00020F0F000084360602878C00728D06868F5
:1011C000012810D02168022810D0890700292EDAC2
:1011D000616821F0030101436160FFF72BFF804646
:1011E00041F288390DE021688903EFE78901EDE7D5
:1011F000FFF720FFA0EB0801494502D90320BDE815
:10120000F0876068696800F00C00B0EB810FEFD1E7
:10121000306800F00700B8420BD9306820F00700B2
:1012200038433060306800F00700B84201D0012038
:10123000E5E72878400705D56068E96820F4E060B4
:10124000084360602878000706D56068296920F4A3
:10125000605040EAC100606000F038F86168084AF8
:10126000C1F30311515CC840064908600648006894
:10127000FFF700FF0020C2E70020024000100240FC
:10128000564B00080C0000200400002004480549CB
:1012900000684968044AC1F30221515CC8407047A4
:1012A0000C00002000100240664B0008044805496D
:1012B00000684968044AC1F3C221515CC8407047C4
:1012C0000C00002000100240664B00080E4A5168D6
:1012D0000E4801F00C03042B11D0082B0FD10C4841
:1012E000C1F38343C903C05C0AD55168084AC1F3FE
:1012F0004041921E515C054A5043B0FBF1F07047EB
:1013000004494843704700000010024000127A0070
:10131000464B000800093D002DE9F84F040070D04D
:101320002078C04DC00749D06868C0F3810001280B
:1013300007D06868C0F38100022809D16868C0033B
:1013400006D52868800339D560680028E7D035E0E5
:101350006068B0F5803F0BD010B1B0F5A02F11D070
:10136000286820F480302860286820F4802002E07B
:10137000286840F480302860606890B1FFF75AFE1A
:1013800006460AE0286840F480202860F0E700BFA5
:10139000FFF750FE801B642873D828688003F7D5B8
:1013A0000CE0FFF747FE064605E000BFFFF742FEF0
:1013B000801B6428F0D828688003F7D420789A4EE0
:1013C00080074FF001094FF0000839D5686810F028
:1013D0000C0F07D06868C0F38100022809D1686843
:1013E000C00306D42868800714D52069012808D1D5
:1013F00010E02069B0B1C6F80090FFF71BFE074669
:1014000005E00AE1FFF716FEC01B0228C4D82868D1
:101410008007F7D52868616920F0F80040EAC1002C
:1014200028600DE0C6F80080FFF704FE074604E0E0
:10143000FFF700FEC01B022823D828688007F7D4D6
:10144000207800072CD57948A169D9B1C0F800905F
:10145000FFF7F0FD074604E0FFF7ECFDC01B022894
:101460000FD8686A8007F7D571484FF4FA510068C1
:10147000B0FBF1F0009000BF0098411E0091FAD23D
:101480000EE080E0C0F80080FFF7D4FD074604E0DE
:10149000FFF7D0FDC01B022875D8686A8007F7D413
:1014A0002078400760D5E8690027C00008D4E869C3
:1014B00040F08050E861E869012700F0805000901A
:1014C0005C480168C90513D40168834641F4807102
:1014D0000160FFF7AFFD824606E000BFFFF7AAFDFF
:1014E000A0EB0A0064284ED8DBF80000C005F5D553
:1014F000E06801280AD008B1052813D0286A20F036
:1015000001002862286A20F0040002E0286A40F006
:1015100001002862E06841F2883B98B1FFF78AFD3C
:1015200082460BE0286A40F004002862EEE700BF24
:10153000FFF780FDA0EB0A0159455AD8286A8007B9
:10154000F6D50CE0FFF776FD824605E0FFF772FD69
:10155000A0EB0A0159454CD8286A8007F6D41FB180
:10156000E86920F08050E861E06988B36968C1F3F8
:101570008101022944D00228C6F8608004D0FFF718
:1015800059FD044638E034E0FFF754FD074604E017
:10159000FFF750FDC01B02282BD828688001F7D424
:1015A000206AB0F5803F05D16868A16820F400305A
:1015B00008436860D4E908010843696821F474119C
:1015C00008436860C6F86090FFF734FD044606E003
:1015D00025E000BFFFF72EFD001B022809D8286870
:1015E0008001F7D51BE000BFFFF724FD001B022898
:1015F00002D90320BDE8F88F28688001F4D40EE0FA
:101600000128F7D06868226A00F48031914204D141
:10161000616A00F47010884201D00120EAE70020DE
:10162000E8E700000010024000004242800442420D
:101630000C0000200070004010B5401EB0F1807F0B
:1016400001D3012010BD4FF0E02460610F2160172D
:1016500001F0C8FB0020A06107202061002010BD20
:1016600070477047F8B5016804460868CA684B6956
:1016700010F00F0F4FF0000559D003F0010602F4EF
:101680009077374365D0C10705D0D10503D5616C8C
:1016900041F001016164410705D5D90703D0616CB0
:1016A00041F002016164810705D5D90703D0616C5F
:1016B00041F004016164010707D502F020013143C4
:1016C00003D0616C41F008016164616C00293AD07B
:1016D000800604D5900602D5204601F066F9206800
:1016E0004069616CC0F38010090700D460B32046E4
:1016F00001F034F920684069400621D52068143093
:1017000050E8001F21F0400140E80012002AF5D106
:10171000E06BA8B16D494163E06BFFF7DBFA00288D
:1017200011D0E06B416B01B0BDE8F0400847830683
:101730000FD593060DD52046BDE8F84001F035B928
:101740002046FFF78EFFF8BD2046FFF78AFF65644D
:10175000F8BD266B2023012E7CD1C6067AD5D6068D
:1017600078D508684868009048694FF0020640063E
:1017700040D5E16B086840680004000CE8D0A28DF9
:101780008242E5D9E085886920282DD020680C3078
:1017900050E8001F21F4807140E80012002AF5D1C2
:1017A0002068143050E8001F21F0010140E80012C9
:1017B000002AF5D12068143050E8001F21F04001C4
:1017C00040E80012002AF5D184F8423025632068F1
:1017D0000C3050E8001F21F0100140E80012002AF0
:1017E000F5D1E06BFFF752FA6663A08DE18D401AE8
:1017F00081B22AE0A08DE18D401A81B2E08D0028EF
:10180000A6D00029A4D022680C3252E8000F20F4A0
:10181000907042E80007002FF5D12068143050E89E
:10182000002F22F0010240E80027002FF5D184F8B4
:101830004230256320680C3050E8002F22F010025F
:1018400040E80023002BF5D166632046FFF708FF30
:10185000F8BDFFE705062BD5150629D594F84100FC
:101860002128F5D1A068B0F5805F01D12069B0B121
:10187000206A411C2162216800784860E08C401E8B
:101880000004000CE084E3D12068C16821F08001ED
:10189000C1602068C16841F04001C160D8E7206A9A
:1018A0000088C0F308004860206A801C2062E5E7D9
:1018B0004006CDD55006CBD5CA68204622F040025E
:1018C000CA6084F8413000F0C3F8C1E74D29000830
:1018D00070B5040004D094F84100002510B106E072
:1018E000012070BD84F84050204600F023F82420E9
:1018F00084F841002068C16821F40051C16020468D
:1019000001F0B4F82068016921F490410161206878
:10191000416921F02A0141612068C16841F4005108
:10192000C1606564202084F8410084F8420065634A
:10193000002070BD30B585B000240094019402945D
:1019400003940068184988422CD11848816941F4F1
:1019500080418161816901F480410491816941F094
:10196000040181618069124D00F0040004904FF47D
:1019700000700090022001900320039069462846E1
:10198000FFF752FA2815CDE900046946284602946B
:10199000FFF74AFA002211462520FFF7AFFB25206A
:1019A000FFF79EFB05B030BD00380140001002403B
:1019B0000008014070472DE9F843044690F84100C3
:1019C0001F4616460D46202802D00220BDE8F883A7
:1019D0007DB176B100206064212084F84100FFF7DA
:1019E00029FBA6848046E684A068B0F5805F02D01B
:1019F00003E00120EAE7206910B12E4600250EE041
:101A000000260CE08021204601F08CF8A0B9AEB190
:101A100016F8010B21684860E08C401EE084E08CE1
:101A200043464FF0000200970028EBD14FF04001F1
:101A3000204601F077F830B10320C7E735F8020BF4
:101A4000C0F30800E6E7202084F841000020BDE74D
:101A50007047FEE770B54FF480711A4D4C00A8B185
:101A600001222846FFF7E1FA00F02EF80122214674
:101A70002846FFF7DAFA00F027F800222146284628
:101A8000FFF7D3FABDE8704000F01EB800220E4602
:101A90002846FFF7CAFA00F017F801222146284627
:101AA000FFF7C3FA00F010F8002221462846FFF79E
:101AB000BCFA00F009F831462846BDE87040012222
:101AC000FFF7B3BA000C01400620401EC0B2FCD2A2
:101AD000704700002DE9F0411D4616460F4680462E
:101AE00000F0D4F8404600F085F8174C2078012823
:101AF00012D0F8B200F07EF8207801280CD000F067
:101B0000C5F808F10100C0B200F074F8207801288F
:101B100002D000246F1E10E00020BDE8F08100BF5D
:101B200000F03EF806F8010BBC4201D1012000E0B4
:101B30000020FFF78FFF641CA4B2AC42F0D300F08A
:101B4000C7F80120E9E700002000002070B50E462C
:101B5000044600F09BF8204600F04CF80F4D287822
:101B6000012818D0304600F045F82878012812D016
:101B700000F08CF8641CE0B200F03CF828780128F2
:101B800009D000F00DF804460120FFF763FF00F0D4
:101B90009FF8204670BD002070BD0000200000208E
:101BA0002DE9F0410024124E25464FF480784FF481
:101BB00000776006040E012239463046FFF735FAF9
:101BC000FFF782FF41463046FFF72AFA08B1641C4E
:101BD000E4B2002239463046FFF727FAFFF774FFD8
:101BE0006D1CEDB2082DE4D32046BDE8F081000065
:101BF000000C01402DE9F041224E002405464FF42F
:101C000080787715280601D5012200E000224146A0
:101C10003046FFF70AFAFFF757FF012239463046F0
:101C2000FFF703FAFFF750FF002239463046FFF76F
:101C3000FCF9FFF749FF6806641C050EE4B2082CA6
:101C4000E0D30122444641463046FFF7EEF9FFF764
:101C50003BFF012239463046FFF7E7F9FFF734FF33
:101C600021463046FFF7DCF90100074800D001218A
:101C70000170002239463046FFF7D7F9BDE8F04140
:101C8000FFF722BF000C01402000002070B50122A8
:101C90000E4D540221462846FFF7C7F901221602CD
:101CA00031462846FFF7C1F9FFF70EFF0022314603
:101CB0002846FFF7BAF9FFF707FF0022214628461A
:101CC000FFF7B3F9BDE87040FFF7FEBE000C01401E
:101CD00070B50C4D4FF48074002221462846FFF762
:101CE000A4F9012251022846FFF79FF9FFF7ECFE05
:101CF000012221462846FFF798F9BDE87040FFF71A
:101D0000E3BE0000000C014070B515460E460446C7
:101D1000FFF7BCFF2046FFF76DFF0B4C2078012832
:101D20000FD03046FFF766FF2078012809D02846FB
:101D3000FFF760FF2078012803D0FFF7C9FF0120DB
:101D400070BD002070BD0000200000202DE9F04192
:101D500004461D4616460F462A2000F0A1FC2046E8
:101D600000F092FC304600F08FFC2B2000F098FC35
:101D7000384600F089FC284600F086FCBDE8F041BA
:101D80002C2000F08DBC10B514460B460246FFF720
:101D9000DDFF2046BDE8104000F076BC2DE9F0479D
:101DA00080461F46581E83B21646501E82B20C460D
:101DB0004046DDF82090FFF7C9FF0AE0454604E001
:101DC000484600F061FC6D1CADB2B542F8D3641C0E
:101DD000A4B2BC42F2D3BDE8F087000010B5664C57
:101DE000002204212046FFF720F96420FFF70AF8BB
:101DF000012204212046FFF718F96420FFF702F8BA
:101E0000012240215D48FFF710F96420FEF7FAFF38
:101E1000112000F045FC7820FEF7F4FF362000F09A
:101E20003FFC002000F050FC3A2000F039FC052077
:101E300000F04AFCB22000F033FC0C2000F044FC1F
:101E40000C2000F041FC002000F03EFC332000F0AC
:101E50003BFC332000F038FCB72000F021FC35209B
:101E600000F032FCBB2000F01BFC322000F02CFC08
:101E7000C22000F015FC012000F026FCC32000F079
:101E80000FFC152000F020FCC42000F009FC2020ED
:101E900000F01AFCC62000F003FC0F2000F014FC38
:101EA000D02000F0FDFBA42000F00EFCA12000F0EB
:101EB0000BFCE02000F0F4FBD02000F005FC082033
:101EC00000F002FC0E2000F0FFFB092000F0FCFBFC
:101ED000092000F0F9FB052000F0F6FB312000F0AE
:101EE000F3FB332000F0F0FB482000F0EDFB17205F
:101EF00000F0EAFB142000F0E7FB152000F0E4FB03
:101F0000312000F0E1FB342000F0DEFBE12000F0A6
:101F1000C7FBD02000F0D8FB082000F0D5FB0E2036
:101F200000F0D2FB092000F0CFFB092000F0CCFB31
:101F3000152000F0C9FB312000F0C6FB332000F073
:101F4000C3FB482000F0C0FB172000F0BDFB1420AD
:101F500000F0BAFB152000F0B7FB312000F0B4FB15
:101F6000342000F0B1FB212000F09AFBBDE81040C6
:101F7000292000F095BB000000140140000C014036
:101F80002DE9FF4F81B00446DDF83C9000904FEA08
:101F900059074FF00008780700D0012000EBD70068
:101FA00000FB09FB203AD0B2039002980299484402
:101FB000401E83B2E019401E82B22046FFF7C6FEE3
:101FC000002553E0B9F10C0F2AD0B9F1100F2ED033
:101FD000B9F1180F2ED0B9F1200F49D12749039834
:101FE00001EB8010002610F805A0109800284FF093
:101FF000010000FA06F000EA0A0022D020B12046D3
:10200000049A0299FFF7BFFE641C0098A4B2201A3C
:10201000B84225D10298009C401C80B2029023E077
:102020000398174900EB400001EB8000DAE71549FF
:10203000039803E00398144900EB400001EB001003
:10204000D0E708B1049800E00E9800F01DFB08F1FD
:102050000100C0B2B0FBF7F1804607FB118050B120
:10206000761CF6B2082EC0D36D1CADB25D45A9D367
:1020700005B0BDE8F08F4FF00008F5E7A267000853
:102080006E4B0008E24F0008D25500082DE9FE4FC4
:102090009946DDE90D4615468A460746DDF830804B
:1020A00014E00C2C17D0102C20D0182C29D0202C68
:1020B0000FD1CDF80080CDE901464B462A46514666
:1020C000384600F09BF9381987B2AD1C28780028F3
:1020D000E7D1BDE8FE8FCDF80080CDE901464B4643
:1020E0002A465146384600F017F8ECE7CDF8008054
:1020F000CDE901464B462A465146384600F088F85D
:10210000E1E7CDF80080CDE901464B462A4651462D
:10211000384600F0F7F8D6E72DE9FF4F83B0804648
:10212000119D00904FF00009680700D0012000EBDE
:10213000D50000FB05FB05200026029006EB86007B
:1021400000EBC6013148059A10F81130127893421D
:1021500051D100EB410001904178059840788142CF
:1021600049D1049804992844401E83B208EB050025
:10217000401E82B24046FFF7E9FD002739E0019892
:10218000002400EB070A12989AF8021000284FF07A
:10219000010000FA04F001EA000115D021B1404627
:1021A000069A0499FFF7EFFD08F101001FFA80F885
:1021B0000098A8EB0000A84215D10498DDF8008033
:1021C000401C80B2049012E009B1069800E010981B
:1021D00000F05AFA09F10100C0B2B0FBF5F18146F6
:1021E00005FB119078B1641CE4B2082CCBD37F1CA2
:1021F000FFB25F45C3D3761C0298B6B286429DD328
:1022000007B0BDE8F08F4FF00009F0E7627F0008EB
:102210002DE9FF4F83B08046119D00904FF00009DB
:10222000680700D0012000EBD50000FB05FB05206E
:10223000002602903248059A06EB061110F811307C
:102240001278934250D100EB4100019041780598FB
:102250004078814248D1049804992844401E83B2B2
:1022600008EB0500401E82B24046FFF76FFD0027D5
:1022700038E00198002400EB070A12989AF802103F
:1022800000284FF0010000FA04F001EA000114D028
:1022900021B14046069A0499FFF775FD08F1010047
:1022A00000991FFA80F8A8EB0100A84214D1049805
:1022B0008846401C80B2049012E009B1069800E004
:1022C000109800F0E1F909F10100C0B2B0FBF5F19E
:1022D000814605FB119078B1641CE4B2082CCCD384
:1022E0007F1CFFB25F45C4D3761C0298B6B286420B
:1022F000A0D307B0BDE8F08F4FF00009F0E7000071
:10230000E47F00082DE9FF4F83B08046119D0090C7
:102310004FF00009680700D0012000EBD50000FB5A
:1023200005FB05200026029006EB860000EB461117
:102330003148059A10F811301278934251D100EBD0
:1023400041000190417805984078814249D1049834
:1023500004992844401E83B208EB0500401E82B257
:102360004046FFF7F3FC002739E00198002400EB1A
:10237000070A12989AF8021000284FF0010000FA9C
:1023800004F001EA000115D021B14046069A0499F3
:10239000FFF7F9FC08F101001FFA80F80098A8EB9C
:1023A0000000A84215D10498DDF80080401C80B2DE
:1023B000049012E009B1069800E0109800F064F96A
:1023C00009F10100C0B2B0FBF5F1814605FB1190A7
:1023D00078B1641CE4B2082CCBD37F1CFFB25F45FC
:1023E000C3D3761C0298B6B286429DD307B0BDE82F
:1023F000F08F4FF00009F0E78E8000082DE9FF4FC5
:1024000083B08046119D00904FF00009680700D00E
:10241000012000EBD50000FB05FB05200026029003
:102420003248059A06EB861110F811301278934263
:1024300050D100EB410001904178059840788142ED
:1024400048D1049804992844401E83B208EB050043
:10245000401E82B24046FFF779FC002738E0019821
:10246000002400EB070A12989AF8021000284FF097
:10247000010000FA04F001EA000114D021B1404645
:10248000069A0499FFF77FFC08F1010000991FFAF2
:1024900080F8A8EB0100A84214D104988846401C9B
:1024A00080B2049012E009B1069800E0109800F0A4
:1024B000EBF809F10100C0B2B0FBF5F1814605FB74
:1024C000119078B1641CE4B2082CCCD37F1CFFB20D
:1024D0005F45C4D3761C0298B6B28642A0D307B03B
:1024E000BDE8F08F4FF00009F0E70000008200081F
:1024F0002DE9FF4F83B08346129F1D467E081F497A
:102500001046FDF7ADFEFEF7FEF800241FFA80F935
:10251000A2462DE0281B401EC1B20A2001F0B4FCE7
:10252000B9FBF0F00A21B0FBF1F201FB1208A81E82
:1025300084420ED1119A00FB06B08DE8840480B26B
:102540002E22109B0499FFF71BFD641C6D1CE4B246
:10255000EDB2119908F130008DE88204C2B204FB9B
:1025600006B080B2109B0499FFF70AFD641CE4B228
:10257000AC42CFD307B0BDE8F08F00000000C842E6
:102580002DE9FF4F83B00026DDE911B81D468246D4
:102590004FEA58073446B1462CE0281B401EC1B212
:1025A0000A2001F071FC0599B1FBF0F00A21B0FBA3
:1025B000F1F201FB120026B9691E8C4201DA58B112
:1025C00001263030C2B204FB07A0CDF800B0CDE93F
:1025D000018980B2109B08E0CDF800B004FB07A091
:1025E000CDE90189109B80B220220499FFF7C8FC35
:1025F000641CE4B2AC42D0D307B0BDE8F08F2DE943
:10260000F0471F469046CA19521E93B200EB0802CB
:10261000521E002592B2DDF82090FFF797FB0026AE
:1026200011E000240BE019F8150000F037F809EB71
:102630004500407800F032F8641CA4B26D1CBC4226
:10264000F1D3761CB6B24645EBD3BDE8F0872DE951
:10265000FE4F9946DDE90D6714468A460546DDF8CA
:1026600030800CE0CDF800804B4651462846CDE93D
:102670000167FFF785FC05EB560085B2641C2278E4
:10268000002AEFD1BDE8FE8F10B50446000A00F025
:102690001BF8E0B2BDE8104000F016B800F014B826
:1026A00070B5084C0546002220212046FEF7BDFCEF
:1026B000284600F009F82046BDE87040012220219C
:1026C000FEF7B3BC000C014070B5144E0546002265
:1026D00010213046FEF7A9FC0024002220213046BC
:1026E000FEF7A3FC280601D5012200E0002280218C
:1026F0003046FEF79AFC012220213046FEF795FC79
:102700006806641C050EE4B2082CE6D33046BDE82A
:10271000704001221021FEF788BC00000008014033
:1027200010B5C0220221AE20FFF7EEFA00220321ED
:10273000AE20FFF7E9FA00220421AE20FFF7E4FA09
:1027400000220521AE20FFF7DFFA00220621AE208D
:10275000FFF7DAFA0F220821AE20FFF7D5FA03229D
:102760000921AE20FFF7D0FA27220A21AE20FFF779
:10277000CBFA32220C21AE20FFF7C6FA32220D210D
:10278000AE20FFF7C1FA7F221021BDE81040AE2035
:10279000FFF7BABA704700002DE9F04F85B000246A
:1027A00038480094019402940394816941F0100127
:1027B0008161816901F010010491816941F020017A
:1027C0008161816901F020010491816941F0040176
:1027D0008161816901F004010491816941F008017E
:1027E00081618069DFF8A09000F008000490012268
:1027F000B0214846FEF719FCDFF890A00122042121
:102800005046FEF712FCDFF888B0012260215846DE
:10281000FEF70BFC4FF44078002241465846FEF785
:1028200004FC0325B0200126022703958DE8C10092
:1028300069464846FEF7F8FA3003CDE900046946D8
:1028400048460294FEF7F0FA042003958DE8C10093
:1028500069465046FEF7E8FA602003958DE8C1000E
:1028600069465846FEF7E0FA01AA1120CDF800802B
:1028700082E8310069465846FEF7D6FA05B0BDE851
:10288000F08F0000001002400008014000140140D9
:10289000000C01400C4810B50A4901604FF4E131C9
:1028A0004160002181600C22C160C0E90412816195
:1028B000C161FFF70DF8002803D0BDE81040FEF716
:1028C0003BB910BD003801402800002010B540225F
:1028D0000921AE20FFF718FA002800D0012010BD12
:1028E000FEE7FEE770477047FEF7AABB30B58FB032
:1028F00028216846FDF751FC14210AA8FDF74DFC7C
:1029000001210804CDE9001000240294022504915D
:10291000CDE907504FF4E01009906846FEF7FCFC43
:1029200008B172B6FEE70F20CDE90A054FF48060CA
:10293000CDE90C4002210AA80E94FEF711FC0028F4
:1029400001D072B6FEE70FB030BD704710B5406AD7
:102950000021C185C184FEF784FE10BD01680C31E1
:1029600051E8002F22F4907241E80023002BF5D1AA
:102970000168143151E8002F22F0010241E80023E0
:10298000002BF5D1016B012909D101680C3151E807
:10299000002F22F0100241E80023002BF5D1202166
:1029A00080F8421000210163704708B590F842108A
:1029B000222901D0022008BD82684FF480539A4238
:1029C00001D1016921B1816A9A421BD04AB10AE062
:1029D0000268816A5268C2F308020A80816A891C0F
:1029E00008E0026972B10268526802F07F020A7060
:1029F000816A491C8162C18D491E0904090CC18587
:102A000003D01BE002685268F1E70168CA6822F04F
:102A10002002CA600168CA6822F48072CA60016834
:102A20004A6922F001024A61202180F84210002107
:102A30004163026B012A03D0FEF7BCFF002008BDF2
:102A4000016301680C3151E8002F22F0100241E8C7
:102A50000023002BF5D101680A68D20602D50A6866
:102A600049680091818DFEF7FBFDE7E770B50446EC
:102A700000680169E26821F4405111430161216954
:102A8000A0680843616908432168CA6841F20C6381
:102A90009A430243CA6020684169A26921F44071E7
:102AA000114341611E492068884202D1FEF7FEFBB6
:102AB00001E0FEF7EBFB00EBC00101EB00126068E8
:102AC00064218000B2FBF0F3B3FBF1F36FF0180662
:102AD0007343B2FBF0F5B2FBF0F605EB830532234E
:102AE00003EB0515B5FBF1F5B6FBF1F605F0F005C6
:102AF00005EB0615B2FBF0F6B2FBF0F0B0FBF1F01F
:102B00006FF01802504306EB800003EB0010B0FB9F
:102B1000F1F0216800F00F002844886070BD0000CB
:102B2000003801402DE9F041984617460E4604460C
:102B3000069D27E0681C25D02DB1FEF77BFAA0EB9F
:102B40000800A8421ED920680C3050E8001F21F46C
:102B5000D07140E80012002AF5D12068143050E806
:102B6000001F21F0010140E80012002AF5D12020C9
:102B700084F8410084F84200002084F840000320DB
:102B8000BDE8F0812068006836EA000004D000202B
:102B9000B842CFD00020F3E70120F9E70148FEF763
:102BA00061BD000028000020FEE700000FB44FF4D4
:102BB000947110B5CAB06C464EAB20464D9A00F0E9
:102BC000F7F806E021460123641C1A460448FEF784
:102BD000F2FE20780028F5D14AB010BC5DF814FB55
:102BE0002800002010B5044A044BFDF7B5FBBDE8F2
:102BF000104000F005B80000182D4454FB21F93FA7
:102C00002DE9F04F002687B004460D46DFF87881A5
:102C10005E4FDFF87C91DFF87CA132463346FDF74A
:102C2000B9FD02D2012685F000453A465A4B2046AE
:102C3000294601F0E5F804460D463A464346FDF7BD
:102C4000C1FD0AD2002E7DD000263A4643462046DA
:102C50002946FDF722FC04460D463A464F4B2046D6
:102C60002946FDF7AFFD07D23A464346204629469E
:102C7000FDF716FC04460D46C8464A46D146534663
:102C800020462946FDF781FCFDF751FD0746FDF77B
:102C900010FD42464B46FDF706FC22462B46FDF74B
:102CA000FFFB04460D4642463D4BFDF78BFD08D227
:102CB00042464B46204629467F1CFDF7EEFB044664
:102CC0000D463848224600EBC701D1E90083C7F121
:102CD000640100EBC1009946D0E900739A462B4687
:102CE00010461946FDF7DFFB22462B46CDE90001D1
:102CF000FDF7D9FB834622462B460291FDF7D3FB15
:102D000042464B46FDF7CFFB0022274BFDF73DFC2B
:102D1000CDE9040158463A4653460299FDF7C3FBF4
:102D20000022224BFDF731FCCDE90201DDE9000173
:102D300042464B46FDF7B7FB4FF0FF32FDF794FCE0
:102D40008B4600E01DE000903A4653462046294657
:102D5000FDF7A9FB42464B46FDF7FEFA5B46009A9B
:102D6000FDF79BFBDDE90223FDF797FBDDE904237B
:102D7000FDF7F2FA002E01D081F0004107B0BDE866
:102D8000F08F012661E70000FB210940182D445413
:102D90001A271792BF15903FFB211940FB21F93FDD
:102DA000BF15803F908400080000384000001840A4
:102DB0007CB50C001D461646014601D0601E00E0A1
:102DC0000020CDE90010064B6A462946304600F047
:102DD000F1F8002C02D0009A002111707CBD000097
:102DE000BB3600080907090E002804DB00F1E020CB
:102DF00080F80014704700F00F0000F1E02080F828
:102E0000141D704702E008C8121F08C1002AFAD139
:102E100070477047002001E001C1121F002AFBD15A
:102E2000704700000149086070470000240000203E
:102E30002DE9FF5F82B00021DDE90430020DDDF8ED
:102E400040B0034318D044F61050A2F2FF32424380
:102E50001514119801281FD0A5EB0B00401C5FEA48
:102E6000000A4FF000064E4FDFF83891B04650464A
:102E700015D5CAF1000413E0119801244AA30128D2
:102E800001D16FEA0B010298119AC0E90031C0E943
:102E9000024206B0BDE8F09FCBF10000DFE7044638
:102EA0000021404A491842EB0450CDE9001012E0DD
:102EB000E00707D032463B4640464946FDF7F3FA65
:102EC0008046894632463B4610461946FDF7EBFAE6
:102ED00006460F466410002CEAD1DDE90401DDE965
:102EE0000023BAF1000F06DAFDF7DDFA42464B4641
:102EF000FDF7D9FA05E0FDF748FB42464B46FDF7E2
:102F000044FB04460E460022284BFDF75BFC03D829
:102F10004FF0FF30014607E00022254B20463146A6
:102F2000FDF71AFAFDF7B7FD102409E0002C0ADBC3
:102F30000A220023FDF79AFC039B30321A55641EC7
:102F400050EA0102F2D1641C039AC4F11103144443
:102F5000119A012A03D0012208430DD10AE0084347
:102F600004D000204FF0110B119072E7A3EB0B057A
:102F70006D1E0DE05B4504DD4FF0000205F101051B
:102F800004E003DA4FF00002A5F10105002AECD0BD
:102F900002981199C0E90231C0E9004579E70000C3
:102FA000000014400000F03F300000000000F0433B
:102FB0000000E03F2DE9FF4F95B09A46884606464F
:102FC0000025EEE1252877D100242746F94A012182
:102FD000039400E0044316F8013F203B01FA03F09C
:102FE0001042F7D130782A2811D06FF02F033078B3
:102FF000A0F13002092A16D8039A44F0020402EB29
:10300000820203EB42021044761C0390EFE758F86B
:10301000042B0392002A03DA504244F40054039034
:1030200044F00204761C30782E2816D116F8010FD1
:1030300044F004042A280DD06FF02F023078A0F15C
:103040003003092B09D807EB870302EB4303C718AA
:10305000761CF3E758F8047B761C30786C280FD088
:1030600006DC4C2817D068280DD06A2814D104E05B
:10307000742810D07A280FD10DE044F400140AE02F
:1030800044F4801401E044F440147278824202D186
:1030900004F58014761C761C307866280BD013DC7F
:1030A000582877D009DC002875D04528F6D0462866
:1030B000F4D047281AD193E118E0632835D064286A
:1030C00079D0652812D18BE1702873D008DC67288D
:1030D000F1D069286FD06E280DD06F2806D1ACE0F2
:1030E00073282CD0752874D0782853D0524617995D
:1030F00090476D1C54E1C4F30250022809D0032804
:103100000DD0D8F8001004280DD00D6008F1040887
:1031100046E1D8F80010EA17C1E90052F6E7D8F8FE
:1031200000100D80F2E70D70F0E718F8041B8DF821
:10313000001000208DF80100EB46012003E058F854
:1031400004BB4FF0FF3061074FF0000102D40DE0E7
:1031500009F101018946B9420FDA8145F8DB1BF814
:1031600009100029F4D108E009F1010189468142E2
:10317000FADB1BF809100029F6D103985346A0EB9F
:10318000090721463846179A00F080FA284400EBD8
:10319000090507E044E008E10DE01BF8010B524689
:1031A00017999047B9F10109F7D25346214638469D
:1031B000179AF2E039E00A21C4F302524FF0000BF3
:1031C0000091022A06D058F8040BC117032A09D02F
:1031D0000AE023E008F1070020F00702F2E802010C
:1031E000904605E000B2C117042A01D140B2C117D0
:1031F000002906DA0A460021404261EB02012D2235
:1032000002E0220504D52B228DF80420012203E0E0
:10321000E20701D02022F7E7914657E00A2100E0BB
:1032200010214FF0000B00910BE010214FF0000B2C
:1032300044F004040827009103E008204FF0000B3D
:103240000090C4F30252022A05D058F8040B002162
:10325000032A08D008E008F1070020F00702F2E88E
:103260000201904603E080B2042A00D1C0B24FF0C0
:10327000000922072AD53278702A07D0DDF800C06D
:103280008CF0100C5CEA0B0C05D00EE040228DF89F
:103290000420012208E050EA010306D030238DF813
:1032A00004308DF8052002229146009B83F008032C
:1032B00053EA0B030AD150EA010201D1620705D596
:1032C00030228DF804204FF001097F1E3278582AF1
:1032D00004D039A20C920CAA02920BE03BA2F9E7AF
:1032E0005B46009AFDF7C2FA0C9B9B5C029A521E49
:1032F0000292137050EA0102F2D1029804A9081A4E
:1033000000F1200B600702D524F4803400E001278F
:103310005F4502DDA7EB0B0000E0002000EB0B0196
:10332000009003984944401A0390E00306D45346A2
:103330002146179A039800F0A9F90544002706E0F2
:1033400001A85246C05D179990476D1C7F1C4F45E0
:10335000F6DBE0030CD553462146179A039800F09C
:1033600095F9054404E030205246179990476D1CAA
:103370000099481E00900029F5DC08E002980299A7
:1033800052460078491C0291179990476D1CBBF179
:103390000001ABF1010BF1DC5BE100F065F90544E4
:1033A000761C307800287FF40DAE19B02846BDE8B1
:1033B000F08F0000092801003031323334353637C0
:1033C0003839616263646566000000003031323371
:1033D0003435363738394142434445460000000011
:1033E000600700D4062708F1070020F00700F0E886
:1033F0000223804603F0004C5FEA0C0001D097A046
:1034000009E0200501D596A005E0E00701D095A0D0
:1034100001E0AFF24C001390307823F000436528B0
:103420000CD006DC452809D046281DD047287FD17E
:103430003BE0662818D067287AD136E00021112FAA
:1034400001DB112000E0781CCDE9000104A90CA8E3
:10345000FFF7EEFCDDE90D010C9A4FF0000B07F1D0
:103460000109109200914EE04FF000400097CDE925
:10347000011004A90CA8FFF7DBFCDDE90D020C9B91
:103480000F994FF0000B91461093009211B9791CDF
:1034900000EB0109B7EB090003D4C0F1FF3B07F1D2
:1034A0000109A9EB0700019042E0012F00DA012792
:1034B0000021112F01DD112000E03846CDE9000187
:1034C00004A90CA8FFF7B4FCDDE90D010C9A0091EA
:1034D0004FF0000BB946109221070FD4009A4A45CD
:1034E00003DA914601E0A9F10109B9F1010F05DD07
:1034F000109AA9F10101515C3029F4D0B84202DAE6
:1035000010F1040F03DA0121CDE9011010E00028C9
:1035100003DC8344A9EB000102E0411C494500DDC6
:103520008946A0EB0B00401C01904FF00040029038
:10353000200705D40198484502DB4FF0FF30019089
:1035400000208DF84B0002980DF14B07B0F1004FB1
:1035500025D002200C902B200D90029800280CDA28
:10356000404202902D200D9007E00A210298FDF7BD
:1035700067F93031029007F8011D0C99481E0C9034
:103580000029F2DC02980028EFD1791E0D9808700E
:10359000307800F0200040F0450007F8020D11A837
:1035A000C01BC01D02901398007800B1012000EBF1
:1035B0000901019801EBE071029801440398401A57
:1035C000401E0390E00306D453462146179A039801
:1035D00000F05CF805441398007818B1524617992A
:1035E00090476D1CE00323D553462146179A039854
:1035F00000F04CF805441BE0BBF1000F07DB00981E
:10360000584504DD1098179910F80B0001E0179940
:1036100030205246904701980BF1010B401E05F1F6
:103620000105019004D12E205246179990476D1C38
:10363000B9F10001A9F10109DEDC05E017F8010B81
:103640005246179990476D1C0299481E0290002916
:10365000F4DC53462146179A03989EE62D0000009D
:103660002B000000200000002DE9F0410446002559
:103670001E461746880404D405E039462020B0478A
:103680006D1C641EF9D52846BDE8F0812DE9F04196
:10369000044600251E469046C80301D5302700E0A9
:1036A0002027880404D505E041463846B0476D1C04
:1036B000641EF9D52846BDE8F0814A68002A06D084
:1036C0000A68531C0B6010704868401E48607047C1
:1036D00070B500F021FA00F037F80F4C0F49606820
:1036E000884202DD0E480F4901E0FDF73FF8FDF783
:1036F00081F860600F4D0CA128462268FFF756FA4A
:103700006068FDF733F802462846BDE870400B4676
:1037100009A1FFF74BBA000018000020E1FAC742E8
:103720008FC2F5285CFF5840D6B8C1EED0C4C2CADB
:103730002533640000380140D6B8C1EED1AAD1F5D6
:1037400025302E32660000002DE9F04F4FF00009C1
:1037500089B0DA4D4F46CDF810904C464FF40078C2
:1037600005F58456CDF80C9055F834104846FCF712
:103770001FFD814656F834103846FCF719FD641CCD
:10378000A4B207464445EFD36FF0080421464846EB
:10379000FCF7D6FD029021463846FCF7D1FD002407
:1037A0004746019055F834000299FCF753FD45F85F
:1037B000340056F834000199FCF74CFD46F834000B
:1037C000641CA4B2B9464C45ECD3BD49BD48FFF7D3
:1037D000EDF901246FF001084FF4FF7A55F8340039
:1037E0000121FCF7ADFD05EBC40757F8081CFCF7F9
:1037F000DFFCB968FCF7DCFC4146FCF7A1FD45F8AD
:10380000340056F834000121FCF79AFD06EBC4079A
:1038100057F8081CFCF7CCFCB968FCF7C9FC41461A
:10382000FCF78EFD46F83400641CA4B25445D5D98B
:1038300000246FF0020AA846B34608EBC4054646CA
:1038400058F83400A968FCF7B3FC2969FCF7B0FC10
:10385000A969FCF7ADFC296AFCF7AAFCA96AFCF788
:10386000A7FC296BFCF7A4FCA96BFCF7A1FC514653
:10387000FCF766FD46F834000BEBC40607465D46D0
:103880005BF83400B168FCF793FC3169FCF790FCFD
:10389000B169FCF78DFC316AFCF78AFCB16AFCF770
:1038A00087FC316BFCF784FCB16BFCF781FC514663
:1038B000FCF746FD45F834003846FCF757FF024652
:1038C0000B4681A17F48FFF771F9641CA4B2B4F5DF
:1038D000FC7FB2D37B4F7E493846FFF767F900245F
:1038E0004FEA090655F83400FCF740FF02460B4644
:1038F00075A13846FFF75AF9641CA4B2B442F1D35B
:103900007449B9463C463846FFF750F972490020E1
:1039100008806A48FDF712F97048FDF70FF9704901
:103920002046FFF743F9B246464600244FEA050811
:1039300006EBC40040680146FCF792FC054656F8C9
:1039400034000146FCF78CFC2946FCF731FC00F002
:10395000A3FA46F8340008EBC40045464068014627
:10396000FCF77EFC074655F834000146FCF778FC6E
:103970003946FCF71DFC00F08FFA46F83400641C51
:10398000A4B25746BC42D3D35FF00104049856F862
:103990003410FCF70DFC049055F834100398FCF734
:1039A00007FC641CA4B20390BC42EFD300244F4632
:1039B00056F83400FCF7DAFE02460B4642A13846C0
:1039C000FFF7F4F8641CA4B2FF2CF1D9454938463E
:1039D000FFF7ECF85FF0000455F83400FCF7C6FE82
:1039E00002460B4638A13846FFF7E0F8641CA4B243
:1039F000FF2CF1D93C493846FFF7D8F81E212F4853
:103A000000F0C2F805461E21344800F0BDF8044617
:103A10002A4636A13846FFF7C9F8224633A1384670
:103A2000FFF7C4F82846FCF744FE0022314BFCF7B0
:103A30003AFD6FF00802FCF717FE00222E4BFCF750
:103A400032FD00222D4BFCF787FCFCF7D3FEFCF780
:103A500041FEDFF8848008F10808C8F800000199E9
:103A60000498FCF7FDFB0446DDE90210FCF7F8FBC7
:103A70002146FCF727FCFCF779FE05460C46204A58
:103A8000204BFCF710FD06460F46284621461E4AED
:103A90001E4BFCF708FD2A462346FCF704FD324680
:103AA0003B46FCF759FC1A4A1A4BFCF755FCFCF74D
:103AB000A1FEC8F8040009B0BDE8F08F7000002036
:103AC000D48900080038014025660D0A0000000076
:103AD00070890008AC88000810000020F010002059
:103AE0003888000814890008B887000825640D0A82
:103AF000000000000000594000004E40000034402B
:103B0000B4C876BE9F5A3E4048E17A14AE8746C09C
:103B1000AE47E17A14B657402DE9F05F174CDFF855
:103B20006080002626804FF4007708F584594FF412
:103B3000805ADFF850B016E000F00CF92588BD423D
:103B400011D26088FCF7B0FD48F8350008EBC500DD
:103B50004660A088FCF7A8FD49F8350009EBC500D0
:103B60006D1C4660258051465846FDF759FA0028DD
:103B7000E2D02088B842F6D3BDE8F09F10000020C4
:103B800070000020000801402DE9F04104240F4698
:103B900006462546D0F820800AE000BF56F83410CB
:103BA0004046FCF743FE02D256F834802546641C9A
:103BB000BC42F3DB2846BDE8F08100000EB5FDF7FE
:103BC00047FAFEF793FEFEF7E7FDFEF763FE4FF0C0
:103BD00000094DA14E48FEF7E9FFFEF7DBFDFEF7B9
:103BE00075FEFEF79DFD00244FF48055494E01E01F
:103BF00000F0B0F829463046FDF712FA0028F7D059
:103C0000641CE4B2802CF5D3FEF7E8F84FF6FF749D
:103C1000F02300211A4608460094FEF7BFF8A2469A
:103C20004FF0100B4FF07808FFF752FD20200026D0
:103C3000CDE900A04FF4784754463B4636A23146C2
:103C400002963046FEF722FA5D468DE870003B464C
:103C500034A228210020FEF7FAFC00970323F0226B
:103C600028213020CDE90145FEF78AFC8DE870005F
:103C70003B462EA228215020FEF7E9FC00970323A3
:103C8000F02228218020CDE90145FEF779FC8DE85E
:103C900070003B4625A228215020FEF7D8FC8DE875
:103CA00070003B4623A246210020FEF7D0FC00977F
:103CB00004234A4646218020CDE90145FEF718FC41
:103CC0004846FCF753FD204A204BFCF745FBFCF728
:103CD00091FD1F4F8146002505EB8501002408EB6F
:103CE000C10604EB840028233146C0001A46009721
:103CF000FEF785FC641CE4B2062CF2D36D1CEDB219
:103D0000032DE9D390E70000203F3F0D0A0000009B
:103D10000038014000080140D6D0BEB0D4B0B5E7AD
:103D2000D7D300004C43445F573A00004C43445FF4
:103D3000483A0000496E637265617365696E672079
:103D40004E756E3A00000000295C8FC2F528BC3F1A
:103D5000C43E00087CB5214C002529466580A5801D
:103D6000AE20FDF7F3FE0121AE20FDF7EFFE0720A8
:103D70008DF80000014606236A46AE20FDF7AAFE34
:103D80009DF800104FF6FF70628800EA81311144FF
:103D90009DF8012000EA821211449DF8022001EBF7
:103DA00092018AB262809DF80310A38800EA8131F3
:103DB00019449DF8043000EA831008449DF805106A
:103DC00000EB910080B242F21071A080884200D8CE
:103DD000A5808A4200D865807CBD000010000020CC
:103DE00010B50C46FCF7A3FCFCF755FC002C03DADD
:103DF0004FF07E51FCF72EFABDE81040FCF7B6BC40
:103E00002DE9F04714461D46074689460022134611
:103E100020462946FCF7BEFC03D100200146BDE840
:103E2000F08722462B4638464946FCF7AEFBFFF7A3
:103E3000D7FF22462B46FCF736FB3A464B46FCF7AB
:103E40002FFB064688460022134638464946FCF7B3
:103E5000A1FC01D2012700E00027002213462046E2
:103E60002946FCF797FC01D2012000E000208742A0
:103E700007D022462B4630464146FCF70EFB06464D
:103E8000884630464146CAE70246012000E05043DA
:103E9000491EC9B2FBD2704770B50546FCF76FFDED
:103EA000044620F00040C0F1FF40C00F08D025F0CC
:103EB0000040C0F1FF40C00F04BF0120FEF7B2FF79
:103EC000204670BDFFFFFFFFFFFFFFFFFFFFFFFF6B
:103ED000FFFFFFFFFFFFFFFFFFFFFFFFFFFFFFFFF2
:103EE000FFFFF7BEFFFFFFDEC6388C926B8E6B6E56
:103EF0007C10AD96E73CFFFFFFFFFFFFFFFFFFFFDA
:103F0000FFFFFFFFFFFFFFFFFFFFFFFFFFFFFFFFC1
:103F1000FFFFFFFFFFFFFFFFFFFFFFFFFFFFFFFFB1
:103F2000FFFFFFFFFFFFFFFFFFFFFFFFFFFFFFFFA1
:103F3000FFFFEF5D9D15634F426C320A29881946D9
:103F40001925214531E86B8EC638FFFFFFFFFFFFC3
:103F5000FFFFFFFFFFFFFFFFFFFFFFFFFFFFFFFF71
:103F6000FFFFFFFFFFFFFFFFFFFFFFFFFFFFFFFF61
:103F7000FFFFFFFFFFFFFFFFFFFFFFFFFFFFFFFF51
:103F8000A53653104B1053514B0F3A6C31E9216752
:103F9000192510E408A30062088352CBD69AFFFFCC
:103FA000FFFFFFFFFFFFFFFFFFFFFFFFFFFFFFFF21
:103FB000FFFFFFFFFFFFFFFFFFFFFFFFFFFFFFFF11
:103FC000FFFFFFFFFFFFFFFFFFFFFFFFE73C637007
:103FD00063B37CB863F54311324D29EA2188192671
:103FE000190519051104110410E4008308A38C724B
:103FF000FFFFFFFFFFFFFFFFFFFFFFFFFFFFFFFFD1
:10400000FFFFFFFFFFFFFFFFFFFFFFFFFFFFFFFFC0
:10401000FFFFFFFFFFFFFFFFFFFFDEDB3A4B42F03A
:104020006C354B5432B12A2E21EB21A919671905A1
:1040300011041104110411041104190510E40042C3
:1040400073AFFFFFFFFFFFFFFFFFFFFFFFFFFFFF5C
:10405000FFFFFFFFFFFFFFFFFFFFFFFFFFFFFFFF70
:10406000FFFFFFFFFFFFFFFFEF5D3209324C4B10F8
:10407000328F2A4F2A2E19CC1989218919471905FF
:104080001104110410C410C411041104110410E42B
:1040900000428431FFFFFFFFFFFFFFFFFFFFFFFF35
:1040A000FFFFFFFFFFFFFFFFFFFFFFFFFFFFFFFF20
:1040B000FFFFFFFFFFFFFFFF52EC1947324C2A0BB7
:1040C00021EC21EC220C5B914AEE11061926190411
:1040D00010E410E429A7216608A3190511041104AE
:1040E00010E40082BDF7FFFFFFFFFFFFFFFFFFFFB0
:1040F000FFFFFFFFFFFFFFFFFFFFFFFFFFFFFFFFD0
:10410000FFFFFFFFFFFFA535088321882188218954
:1041100021AA218A426B8C71FFFF8C7208831104E3
:1041200008C44229DEFBEF5D5AEC08831104110438
:104130001104088331E8FFDFFFFFFFFFFFFFFFFFF0
:10414000FFFFFFFFFFFFFFFFFFFFFFFFFFFFFFFF7F
:10415000FFFFFFFFF7BE31C710C419251926194705
:10416000194729A8528A4A28AD55FFFF31E808A30C
:1041700019056B4D6B4DFFFFEF7D214510C41104F8
:10418000110411040062AD76FFFFFFFFFFFFFFFF88
:10419000FFFFFFFFFFFFFFFFFFFFFFFFFFFFFFFF2F
:1041A000FFFFFFFFB5960062110419041105190500
:1041B00008C44A8BB5B6EF5DBDF7FFFF6B8E00629A
:1041C00042295AAA4208FFFFFFFF52CC088311047C
:1041D0001104110408A352ADFFFFFFFFFFFFFFFF13
:1041E000FFFFFFFFFFFFFFFFFFFFE71CFFFFFFFFDA
:1041F000FFFFFFFF634E006211041104110410E47D
:104200000062638EFFFFFFFFFFFFFFFF73CF000120
:104210009CF3632CB596FFFFFFFF5B2D0083110419
:104220001104110410E42167EF3DFFFFFFFFFFFFC2
:10423000FFFFFFFFBDF8B5B7EF9E52CB94B3FFFF72
:10424000FFFFFFDF31E808A311041104110411047A
:1042500008A34249F7FFF7FFFFFFFFFF4A6A00018B
:104260008472FFFFFFFFF7FFEFDF3A0908A3110495
:104270001104110411041105BE18FFFFFFFFFFFF19
:10428000FFFFFFFF7BF0006231E831C70041A53539
:10429000FFFFEF5D214610C4110411041104110445
:1042A00010E408A39D76F7FFFFFFADB708A308A3AE
:1042B00031C7E79EF7FFF7FFA57608A310E41104C6
:1042C0001104110411051105A535FFFFFFFFFFFFC4
:1042D000FFFFFFFFDEDB29A7008310C410C410C45A
:1042E000E71CEF9E110510E41104110411041104E0
:1042F000190408C410E56BD16BD108C5006408A58A
:104300000043322B9D7784B3192510C41104110486
:1043100011041104192509269D35FFFFFFFFFFFF3A
:10432000FFFFFFFFFFFF73AF006219041905008252
:104330005B0D9B8E1062110511041104190410E429
:104340000085110539C45A817B409C22AC43A403EB
:104350009B837282498218C200A400C510E419042C
:1043600011041905194711675AECFFBEFFFFFFFF43
:10437000FFFFFFFFFFDFDEDB10C410E411041105B7
:1043800018A4C001888300E41905190408C5214454
:104390008343D523FE42FEE4FF27FF07FEA4FE640D
:1043A000FE03FDA3FCE2EC42B383622410E508C4E3
:1043B0001904192619A821879000BCD3FFFFFFFF1D
:1043C000FFFFFFFFFFDFFFFF7C1000421905110513
:1043D0002883D001F84448A300E408C55A44ED02FC
:1043E000FDE2FE02FE66FF74FFB8FF73F6E7F6A675
:1043F000F645F5A4FCC3FC62FCC2FCC2CBE349C495
:1044000011061988018790A4F8019AECFFFFFFFFBD
:10441000FFFFFFFFFFFFFFFFF7BE31E80083090545
:104420004082C001F823F08548A300A45A44FD024D
:10443000CC23DCC2FE04FE28F648F646F624F5E45A
:10444000FD64FCE3FC62FCC2E402DC02FCE27AA450
:104450000148016778C4F824F802B084E77DFFFFC3
:10446000FFFFFFFFFFFFFFFFFFFFDEDB192500A3BC
:1044700038C4E002D822F844F8A678A400632143A7
:10448000728339839B82F521FD61FD22FCE2FCA24F
:10449000FC42FC42FC42AB22418392C352040126FF
:1044A000192598A4F844F823F802D0A4EF9EFFFF42
:1044B000FFFFFFFFFFFFFFFFFFFFFFFFD69A2987E8
:1044C00000A5B843F822E023F865F8E8C907488357
:1044D000004200A3008429637AA2B362CBA2D36214
:1044E000BB028A82398300A400E500E508E560C4C8
:1044F000D864F844F824F823F8028883C6DBFFFF69
:10450000FFFFFFFFFFFFFFFFFFFFFFFFFFFFE73D95
:104510005B503108E823F843F044F865F909F9AB3A
:10452000D189890648A31842000200420061008236
:1045300000620062008320A350C488A5D885F86576
:10454000F844F844F823F823D003108229C7EF5D1C
:10455000FFFFFFFFFFFFFFFFFFFFFFFFFFFFFFFF6B
:10456000FFFF326C38A5D802F823F865F866F8A783
:10457000F94AFA0CFA4DEA4CD20BB9A9B168A9472D
:10458000B127B907D107E8E7F8C7F8A7F865F865D4
:10459000F844F823F803D00228A3090508C45AEC0C
:1045A000FFFFFFFFFFFFFFFFFFFFFFFFFFFFFFFF1B
:1045B000DEFB190500C441A7C0E6F803F886F8A79A
:1045C000F887F886F8C7F929F98AF9ABF9ABF98BBE
:1045D000F96AF929F908F8C7F8A6F886F865F864C1
:1045E000F823F002B106292500E410E41925192565
:1045F0009D14FFFFFFFFFFFFFFFFFFFFFFFFFFFF18
:10460000AD96006208829535CEBAA28BD044F825CB
:10461000F887F8A7F8C7F8A7F887F886F886F88625
:10462000F887F8A7F8A7F8A6F885F865F864F024E5
:10463000B864930DB6BB63CF0883110410E4216600
:104640003A49EF5DFFFFFFFFFFFFFFFFFFFFFFFFA7
:1046500094D3004210E4CEBBFFFFE7BEB576AACCF0
:10466000C107E045F845F846F866F886F886F8860A
:10467000F886F865F845F865E865D044A8438801F0
:104680009082D73CEFFF955508831104110419055A
:10469000194694B3FFFFFFFFFFFFFFFFFFFFFFFF80
:1046A00094B300412186DF5DFFFFFFFFFFFFE7DFDF
:1046B000C67AB4D3B34EC22AD168E0E6E8A6E8A52C
:1046C000E8A5D8E6C988A906A822A802A000C800C3
:1046D000D800E5F7E7FFADF810C410E4110410E4CA
:1046E00011054A8BFFFFFFFFFFFFFFFFFFFFFFFFEB
:1046F000A555004129A7DF5DF7FFFFFFFFFFFFFF83
:10470000FFFFFFFFEFFFDF7DCEDBCE59CDF8CDD72A
:10471000C5F7CE79BEFBA2ABF003F845D042E84323
:10472000F000D472DFFFAE3910E410E4110410E49D
:1047300011052987FFFFFFFFFFFFFFFFFFFFFFFFBF
:10474000CE5908832146D71CF7FFFFFFFFFFFFFF6D
:10475000FFFFFFFFFFFFFFFFFFFFFFFFFFFFFFFF69
:10476000FFFFFFFFEFFFBA8BF804F845E062F0446B
:10477000F800DB8EDFFFA5F810C410E410E411048C
:1047800010E41925FFFFFFFFFFFFFFFFFFFFFFFF03
:10479000F7BE29870883B639F7FFF7DFFFFFFFFF72
:1047A000FFFFFFFFFFFFFFFFFFFFFFFFFFFFFFFF19
:1047B000FFFFFFFFE7BEBA4AF803F845F864F84484
:1047C000F800E36ED7FF8CF40883110410E410E4C2
:1047D00010E41905FFFFFFFFFFFFFFFFFFFFFFFFD3
:1047E000FFFF73EF00008472EFFFEFBEFFDFFFFFFC
:1047F000FFFFFFFFFFFFFFFFFFFFFFFFFFFFFFFFC9
:10480000FFFFFFFFE7DFBA8BF803F845F845F82311
:10481000F800D4D3D7FF5B4E00213A29A555088371
:1048200010C41925FFFFFFFFFFFFFFFFFFFFFFFF82
:10483000FFFFDEFB08A331E8DF9EE79EEFBFFFFF2F
:10484000FFFFFFFFFFFFFFFFFFFFFFFFFFFFFFFF78
:10485000FFFFFFFFF7FFBC51E002F803F003E04366
:10486000C2ECCF7EBEFC2146002194D3FFFF8451D1
:1048700000002987FFFFFFFFFFFFFFFFFFFFFFFF94
:10488000FFFFFFFF845100008CF4EFFFE79EEFBFB6
:10489000FFDFFFFFFFFFFFFFFFFFFFFFFFFFFFFF48
:1048A000FFFFFFFFFFFFDF3DBD55BC52BC72B5B738
:1048B000C75DDFFF6BF000003A09F7BFFFFFFFFFA6
:1048C0009D14A555FFFFFFFFFFFFFFFFFFFFFFFF49
:1048D000FFFFFFFFFFFF4AAC08A4BEBBE7DFE77E98
:1048E000EFBEF7DFFFDFFFFFFFFFFFFFFFFFFFFF71
:1048F000FFFFFFFFFFDFF7DFEFFFDFDFD7BFD79E51
:10490000DFDFA5D808831126D6DBFFFFFFFFFFFFFF
:10491000FFFFFFFFFFFFFFFFFFFFFFFFFFFFFFFFA7
:10492000FFFFFFFFEE79DC8B312121A9CF3DDFBFF7
:10493000DF7EE79EEFBEEFBFF7DFF7DFF7DFF7DFE2
:10494000F7DFEFBFEFBEE79EDF7ED75ED75EDFDF2C
:10495000B69A19260842A3EDFFBFFFFFFFFFFFFF36
:10496000FFFFFFFFFFFFFFFFFFFFFFFFFFFFFFFF57
:10497000FFFFDD74DBC0FE00EE4242022189B67B00
:10498000DFDFD77EDF7EDF7EE79EE79EE79EE79E46
:10499000E79EDF7EDF7ED75DD75DDF9EE7FFA5F870
:1049A000110718E3C502FD60D3E6EEDBFFFFFFFF52
:1049B000FFFFFFFFFFFFFFFFFFFFFFFFFFFFFFFF07
:1049C000F79EBA84FCC1FE42FE82FEA2838121458D
:1049D0007474C75EDFDFD77ED75ED75DD75ED75EE4
:1049E000D75DD75DD75EDF9EE7FFC73D63F10884E3
:1049F0005242E626FF29FE86F3E0C36AFFFFFFFF6F
:104A0000FFFFFFFFFFFFFFFFFFFFFFFFFFFFFFFFB6
:104A1000DE18D2C1FDA2FE22FE42FE42FE62D4E2B8
:104A20006A4142497453A63BC73ED7BFD7BFD7BFE1
:104A3000DFBFD7BFC73EA61A63F229A74182B422BF
:104A4000FE62FE83FEAAFF0FFD67BA63EF3CFFFF25
:104A5000FFFFFFFFFFFFFFFFFFFFFFFFFFFFFFFF66
:104A6000E69AD280FD21FDC2F5E2F5C2F582FD8213
:104A7000FD62DC619B216A846AE9632C63AF741177
:104A8000636E632C5A8952047A81CBC2FCE2FD62C8
:104A9000FD82FDC2FDC2FDE4FD24CA62E71CFFFFEA
:104AA000FFFFFFFFFFFFFFFFFFFFFFFFFFFFFFFF16
:104AB000FFFFCCB1D281F3C0FCC1FD02FD02FCE2DC
:104AC000FCC2FCC2FC81FB80C9C081A4AD35CE59BB
:104AD0009C718121DA00FBA1FC82FCA2FC82FCA279
:104AE000FD02FD22FCE2FC00DA60CC90FFFFFFFF3C
:104AF000FFFFFFFFFFFFFFFFFFFFFFFFFFFFFFFFC6
:104B0000FFFFFFFFDE59C40DCB06D2E4DB03DB035E
:104B1000DAE3D2C3C2A4B309BCD2F79EFFFFFFFF02
:104B2000FFFFE6FBB40EBAA6D283E2E3EB02EB2270
:104B3000E322DB03D2E4C36AD5B6FFFFFFFFFFFF2A
:104B4000FFFFFFFF010202030405060708090A0B25
:104B50000C0D0E0F101000000000000000000102FC
:104B60000304060708090000000001020304000016
:104B70000000000000000000000000000404040425
:104B800004000004000014140A00000000000000EB
:104B9000000000000A0A1F0A0A1F0A0A0000000497
:104BA0000E1505060C14150E0400000012150D1547
:104BB0002E2C2A1200000000040A0A3615152916A8
:104BC00000000202010000000000000000001008C8
:104BD0000804040404040808100002040408080877
:104BE00008080404020000000004150E0E1504005D
:104BF000000000000008083E080800000000000057
:104C00000000000000000202010000000000003F60
:104C10000000000000000000000000000000000292
:104C20000000002010100808040402020100000027
:104C30000E1111111111110E0000000004060404E0
:104C40000404040E000000000E1111080402011FEC
:104C5000000000000E11100C1010110E00000000DA
:104C6000080C0C0A091F081C000000001F01010F9E
:104C70001110110E000000000C12010D1311110E85
:104C8000000000001E1008080404040400000000D6
:104C90000E11110E1111110E000000000E1111194C
:104CA00016100906000000000000040000000004C7
:104CB00000000000000000040000000404000000E8
:104CC00010080402020408100000000000003F0069
:104CD0003F00000000000000020408101008040259
:104CE000000000000E111108040400040000000080
:104CF0001C22292D2D1D221C0000000004040C0A7A
:104D00000A1E1233000000000F12120E1212120FB0
:104D1000000000001E1101010101110E0000000041
:104D20000F1212121212120F000000001F120A0EB0
:104D30000A02121F000000001F120A0E0A020207D8
:104D4000000000001C1201013911120C00000000CB
:104D50003312121E12121233000000001F0404044A
:104D60000404041F000000003E08080808080808A2
:104D70000907000037120A060A1212370000000065
:104D8000070202020202223F000000003B1B1B1B25
:104D900015151535000000003B1216161A1A1217C9
:104DA000000000000E1111111111110E0000000081
:104DB0000F12120E02020207000000000E11111164
:104DC0001117190E180000000F12120E0A121237D6
:104DD000000000001E1101060810110F0000000065
:104DE0001F1504040404040E000000003312121204
:104DF0001212120C000000003312120A0A0C0404F2
:104E000000000000151515150E0A0A0A0000000022
:104E10001B0A0A04040A0A1B000000001B0A0A0AF3
:104E20000404040E000000001F0908040402121FFD
:104E300000001C0404040404040404041C00000214
:104E4000020404040808081010000E0808080808E6
:104E5000080808080E00040A000000000000000016
:104E6000000000000000000000000000003F0204FD
:104E70000000000000000000000000000000000C26
:104E8000121C123C000000030202020E1212120E4B
:104E9000000000000000001C1202120C00000018AC
:104EA0001010101C1212123C000000000000000C38
:104EB000121E021C000000182404041E0404041E18
:104EC000000000000000003C120C021C221C000329
:104ED0000202020E12121237000000040400000643
:104EE0000404040E000000080800000C080808086C
:104EF000080700030202021A0A060A13000000074C
:104F0000040404040404041F000000000000000F57
:104F100015151515000000000000000F12121237C1
:104F2000000000000000000C1212120C0000000033
:104F30000000000F1212120E020700000000001CF9
:104F40001212121C103800000000001B060202079B
:104F5000000000000000001E020C101E00000000F7
:104F60000004041E0404041C000000000000001BD8
:104F70001212123C000000000000001B0A0A040488
:104F80000000000000000015150E0A0A00000000D5
:104F90000000001B0A040A1B000000000000003390
:104FA00012120C08040300000000001E0804041E76
:104FB000000018080808080C080808081800080865
:104FC0000808080808080808080806040404040873
:104FD000040404040600160900000000000000009C
:104FE00000000000000000000000000000000000C1
:104FF0000000000000080808080808080000181849
:10500000000000486C2412000000000000000000B6
:1050100000000000002424247F1212127F121212BA
:1050200000000000081C2A2A0A0C1828282A2A1C1A
:10503000080800000022251515152A58545454223A
:1050400000000000000C1212120A76252911916E40
:10505000000000060604030000000000000000003D
:105060000000004020101008080808080810102050
:105070004000000204080810101010101008080466
:1050800002000000000008086B1C1C6B08080000F0
:10509000000000000000080808087F080808080051
:1050A00000000000000000000000000000000606F4
:1050B00004030000000000000000FE0000000000EB
:1050C00000000000000000000000000000000606D4
:1050D0000000000080404020201010080804040256
:1050E0000200000000182442424242424242241878
:1050F0000000000000080E08080808080808083E1C
:1051000000000000003C4242422020100804427E81
:1051100000000000003C4242201820404042221C77
:105120000000000000203028242422227E20207845
:1051300000000000007E0202021A26404042221CAB
:105140000000000000382402021A264242422418BD
:1051500000000000007E222210100808080808083D
:1051600000000000003C4242422418244242423CDB
:105170000000000000182442424264584040241CB1
:1051800000000000000000001818000000001818BF
:1051900000000000000000000008000000000008FF
:1051A00008040000004020100804020408102040F9
:1051B00000000000000000007F0000007F000000F1
:1051C0000000000000020408102040201008040223
:1051D00000000000003C4242464020101000181819
:1051E00000000000001C225A555555552D42221C26
:1051F00000000000000808181414243C224242E772
:1052000000000000001F2222221E22424242221FD2
:1052100000000000007C4242010101010142221C09
:1052200000000000001F2242424242424242221F2E
:1052300000000000003F4212121E12120242423FC2
:1052400000000000003F4212121E1212020202076A
:1052500000000000003C2222010101712122221CD9
:105260000000000000E7424242427E42424242E7E2
:1052700000000000003E0808080808080808083E6A
:1052800000000000007C1010101010101010101002
:10529000110F0000007722120A0E0A121222227742
:1052A0000000000000070202020202020202427F26
:1052B000000000000077363636362A2A2A2A2A6B62
:1052C0000000000000E346464A4A525252626247DA
:1052D00000000000001C2241414141414141221C8B
:1052E00000000000003F424242423E02020202072A
:1052F00000000000001C2241414141414D53321C3D
:1053000060000000003F4242423E1212222242C789
:1053100000000000007C4242020418204042423E4D
:1053200000000000007F4908080808080808081C59
:105330000000000000E74242424242424242423CF8
:105340000000000000E74242222424141418080838
:1053500000000000006B4949494955553622222278
:105360000000000000E7422424181818242442E713
:105370000000000000772222141408080808081C06
:1053800000000000007E2120101008040442423F6B
:105390000000007808080808080808080808080835
:1053A00078000000020204040808081010202020E1
:1053B0004040001E1010101010101010101010108F
:1053C0001E00003844000000000000000000000043
:1053D00000000000000000000000000000000000CD
:1053E00000FF0006080000000000000000000000B0
:1053F0000000000000000000003C4278444242FCF3
:105400000000000000030202021A26424242261A4D
:10541000000000000000000000384402020244388E
:10542000000000000060404040784442424264D89E
:105430000000000000000000003C427E0202423CEE
:105440000000000000F08808087E08080808083EF0
:105450000000000000000000007C22221C023C42F0
:10546000423C000000030202023A4642424242E746
:1054700000000000000C0C00000E08080808083EA0
:1054800000000000003030000038202020202020C4
:10549000221E0000000302020272120A1612227774
:1054A00000000000000E0808080808080808083E68
:1054B0000000000000000000007F9292929292B7DC
:1054C0000000000000000000003B4642424242E76C
:1054D0000000000000000000003C42424242423C0A
:1054E0000000000000000000001B26424242221E75
:1054F0000207000000000000007844424242447865
:1055000040E000000000000000774C040404041F89
:105510000000000000000000007C42023C40423ECF
:105520000000000000000008083E080808080830D5
:10553000000000000000000000634242424262DCC2
:10554000000000000000000000E7422424140808C6
:10555000000000000000000000EB494955552222E0
:105560000000000000000000007624181818246EC7
:10557000000000000000000000E742242414180886
:105580000807000000000000007E22100808447E8A
:10559000000000C0202020202010202020202020DB
:1055A000C00010101010101010101010101010105B
:1055B000101000060808080808100808080808085D
:1055C00006000C32C20000000000000000000000D5
:1055D00000000000000000000000000000000000CB
:1055E00000000000000000000000000000000000BB
:1055F00000000000000000000000000000000000AB
:10560000000000000000000000006000600060007A
:10561000600060006000600040002000200020006A
:10562000000000000000600060006000000000005A
:10563000000000000000600660063003980188004A
:105640004400000000000000000000000000000016
:10565000000000000000000000000000000000004A
:105660000000000000000000000010021002100204
:105670001002FE07FE0708020801080108010801E0
:10568000FE07FE07040104010401040100000000FC
:10569000000000000000000040004000F00158033E
:1056A0004C03CC034C0058007000E000C001C00166
:1056B00040034C035C034C034801F00040004000F1
:1056C000000000000000000000000E010A0191002F
:1056D00091009100510051003A00AE03A002500425
:1056E0005004480448044804840284030000000075
:1056F0000000000000000000000038006C006C009A
:105700006C006C006C002C0098071C011A0133011E
:1057100033016301E300C308C6093C070000000031
:105720000000000000000C001C0010001000080029
:105730000400000000000000000000000000000065
:105740000000000000000000000000000000000059
:105750000000000000000004000200018000800042
:1057600040004000200020002000200020002000F9
:105770002000400040008000800000010002000482
:1057800000000000000002000400080010001000EB
:105790002000200040004000400040004000400049
:1057A000400020002000100010000800040002004B
:1057B00000000000000000000000000000004000A9
:1057C000C0004000460C4E0FD001F0015E0F460CA9
:1057D0004000400040000000000000000000000009
:1057E00000000000000000000000000000000000B9
:1057F00040004000400040004000FE0F40004000DC
:1058000040004000400000000000000000000000D8
:105810000000000000000000000000000000000088
:105820000000000000000000000000000000000078
:105830000000000000000C001C0010001000080018
:105840000400000000000000000000000000000054
:1058500000000000000000000000FE070000000043
:105860000000000000000000000000000000000038
:105870000000000000000000000000000000000028
:105880000000000000000000000000000000000018
:105890000000000000001C001C001C0000000000B4
:1058A00000000000000000040006000200030001E8
:1058B00000018000800040004000600020002000C7
:1058C00010001000080008000C0004000600020090
:1058D000000000000000000000000000F00098013F
:1058E0000C030C0306060606060606060606060652
:1058F000060606060C030C039801F00000000000E9
:1059000000000000000000000000000040007C00DB
:105910006000600060006000600060006000600087
:1059200060006000600060006000FC030000000098
:10593000000000000000000000000000F8008401EA
:10594000020306030603000300018001C00060009B
:1059500020001000080204020602FE0300000000FE
:105960000000000000000000000000007800C600F9
:105970008601860180018001C00070008001000165
:1059800000030003060306038601F8000000000080
:105990000000000000000000000000008001800105
:1059A000C001A001A0019001880188018401820149
:1059B000FE0F8001800180018001E00700000000EF
:1059C000000000000000000000000000FC030400D4
:1059D0000400040004000400F4008C01040300032C
:1059E00000030603060382018401F80000000000A2
:1059F000000000000000000000000000E0011803AB
:105A00000C030C0004000600E60116030E06060651
:105A10000606060604060C021803F000000000004B
:105A2000000000000000000000000000F8070C0665
:105A300004020401000100018000800040004000D9
:105A40004000600060006000600060000000000036
:105A5000000000000000000000000000F8010C033E
:105A60000606060606060C021C03F000C8010C031D
:105A700006060606060606060C03F00100000000F6
:105A8000000000000000000000000000F0000C0119
:105A90000C03060206060606060606078C067806AE
:105AA0000006000300030C018C01780000000000D8
:105AB00000000000000000000000000000000000E6
:105AC000000000000000E000E000E0000000000036
:105AD000000000000000E000E000E0000000000026
