:020000040800F2
:10000000001A002049010008732C0008F11D0008A7
:10001000712C0008ED0A00086130000800000000A3
:10002000000000000000000000000000772C000825
:10003000EF0A000800000000752C0008792C000869
:100040006301000863010008630100086301000800
:1000500063010008630100086301000863010008F0
:1000600063010008630100086301000863010008E0
:1000700063010008630100086301000863010008D0
:1000800063010008630100086301000863010008C0
:1000900063010008630100086301000863010008B0
:1000A00063010008630100086301000863010008A0
:1000B0006301000863010008630100086301000890
:1000C0006301000863010008630100086301000880
:1000D000630100080930000863010008630100089B
:1000E0006301000863010008630100086301000860
:1000F0006301000863010008630100086301000850
:10010000630100086301000863010008630100083F
:100110006301000863010008DD2C0008630100088A
:10012000630100086301000863010008630100081F
:10013000DFF810D000F0C8FC00480047413F00083D
:10014000AFF30080001A00200648804706480047A9
:10015000FEE7FEE7FEE7FEE7FEE7FEE7FEE7FEE777
:10016000FEE7FEE7DB2C000831010008202A04DB53
:10017000203A21FA02F00021704721FA02F3D04020
:10018000C2F120029140084319467047D2B201E003
:1001900000F8012B491EFBD270470022F6E710B58C
:1001A00013460A4604461946FFF7F0FF204610BDE5
:1001B000F0B480EA0102D40F4200B2EB410F02D248
:1001C0000246084611464A0042D0C30DDDB2C1F3D3
:1001D000C752AD1A202D35DAC1F3160141F40002E1
:1001E00004B15242C5F1200602FA06F12A41104438
:1001F000B3EBD05F23D0C4B1012DA0EBC35009DC19
:10020000F0BC4FF0004202EAC352DBB200F500003E
:1002100000F087BB400000F1807000EBC350A0F1FC
:10022000807040EAD170490009E0490841EAC07194
:10023000A0EBC35000F50000400800EBC350F0BC39
:1002400000F066BB6142012202EB4101001BF6E7B0
:10025000F0BC704781F00041AAE780F00040A7E7BA
:1002600080EA010210B502F00043400022D04A00AB
:100270001FD0010E01EB1261C0F35600C2F356020B
:1002800040F4000042F40002A0FB022000047F3989
:10029000140400D0401C50EA124001D44000491E12
:1002A000C2B20C0604EBD010401C4008802A02D0D9
:1002B00003E0002010BD20F00100002900DA00203A
:1002C000184310BD30B480EA010202F0004530F05E
:1002D000004221F0004013D090B1C30DD40DC2F301
:1002E0001601C0F31600E41A41F4000140F40002C4
:1002F0007D34914201D3641C00E04900002C02DAF5
:1003000030BC002070474FF400000023914201D31D
:10031000891A034340084FEA4101F7D151B1914294
:1003200002D14FF0004105E002D24FF0010101E09F
:100330006FF0010103EBC450284430BC00F0E8BA70
:10034000420005D0C0F3C7525242914201DC002066
:10035000704700EBC15070472DE9FE4F804681EA9F
:100360000300C00F0C46009021F0004123F000452F
:10037000B8EB0200A94105D24046214690461C46F2
:100380000B46024623F00040104347D0270DC7F329
:100390000A00C3F30A510290401A019040286BDA18
:1003A000C3F3130040F4801B0098924620B1002351
:1003B000D2EB030A63EB0B0B01985946C0F14002E4
:1003C000504600F084FA06460D4650465946019ABA
:1003D00000F08CFA10EB08006141002487EA11520A
:1003E00084EAE7731A4340D0009A62B3019A012A63
:1003F0004FEA075215DC001B61EB02014FF000428F
:1004000002EA0752CDE90042001C41F58011324654
:100410002B4600F0F2FA03B0BDE8F08F40462146CB
:10042000F9E7001B61EB0201001C41F58013001885
:100430005B412018A2F5001747EB030140EAD57095
:10044000B6196D4111E06D084FEA360645EAC075F0
:100450004FEA0752001B61EB0201001C41F58011BD
:1004600049084FEA30000019514132462B4603B08B
:10047000BDE8F04F00F0B2BA00980122400000231E
:10048000D0EB020263EBE073009821464FEAE07480
:10049000B8EB000061EB0401E9E783F000435BE7A0
:1004A00081F0004158E72DE9FE4F81EA030404F092
:1004B000004421F0004100944FF0000B23F0004372
:1004C00050EA01045ED052EA03045BD0C3F30A543D
:1004D000C1F30A552C44A4F2F3340194A0FB025456
:1004E000C1F3130141F48011C3F3130343F48013E8
:1004F00001FB024400FB034E840A970A44EA81543C
:1005000047EA8357A4FB076802958D0A05FB078518
:100510004FEA932C04FB0C542705029D4FEA065822
:1005200047EA1637B5EB08056EEB070C870E920EFF
:1005300047EA811742EA8312A7FB0201B6EB0B01DF
:1005400064EB00042B0D43EA0C335E1844EB1C50A3
:10055000DA465146E7FB0201C5F313044FEA0B33B9
:1005600043EA14534FEA0432019C43EA0603A4F120
:100570000C040294009CCDE900B400F03EFA03B0F4
:10058000BDE8F08F00200146F9E72DE9F04D81EA42
:10059000030404F0004B21F0004514464FF0000A1C
:1005A00023F0004150EA050220D054EA01021DD098
:1005B000C5F30A570246C5F31303C1F31300C1F391
:1005C0000A5640F4801543F48013A7EB0608101B6D
:1005D000D64608F2FD3873EB050002D308F1010896
:1005E00001E092185B41B8F1000F03DA00200146E8
:1005F000BDE8F08D00204FF48011064684460EE0E1
:10060000171B73EB050705D3121B63EB05030643AA
:100610004CEA010C49084FEA300092185B4150EA5D
:100620000107EDD152EA030012D082EA040083EA06
:100630000501084305D0101BAB4106D2012200235F
:1006400006E000224FF0004302E06FF00102531079
:100650001AEB06004CEB085110EB0A0041EB0B01C2
:10066000BDE8F04D00F0BAB970B521F00043034386
:100670000CD0C1F30A550024D5EB040564EB040348
:10068000D617AD1AB34102DB0020014670BD201819
:1006900041EB025170BDC10F80EAE0700844CA0707
:1006A0009623002100F03DB996230022114600F068
:1006B00038B90EB5C10F80EAE0700844CA070021BE
:1006C00040F233438DE80E000A460B4600F095F9E0
:1006D00003B000BD00F0004220F00040C10DC0F3A7
:1006E000160040F400007F2901DA002070479629A7
:1006F00003DCC1F19601C84001E096398840002A28
:10070000F4D04042704720F00040C10DC0F3160005
:1007100040F400007F2901DA00207047962903DCAD
:10072000C1F19601C840704796398840704770B54E
:10073000C1F30A5201F000450024C1F3130140F255
:10074000FF3341F480119A4201DA002070BD40F27B
:1007500033439A42A2F2334203DC5242FFF706FDD2
:1007600000E090402C43F1D0404270BD00F00042C8
:1007700030F000400AD0C10D01F56071C0F31600E1
:1007800042EA0151C2084007114370470020014668
:100790007047000030B5041E71F1000404DB4FF017
:1007A0000044404264EB0101141E73F1000405DBB8
:1007B0001C464FF00043524263EB04038B4208BFD8
:1007C000824230BD30B5041E71F1000404DB4FF0ED
:1007D0000044404264EB0101141E73F1000405DB88
:1007E0001C464FF00043524263EB0403994208BF9A
:1007F000904230BD01F0004330B421F0004150EA96
:10080000010206D00A0DA2F56072C1F31301002A9D
:1008100002DC30BC00207047440F44EAC104C10030
:10082000E01830BC00EBC25000F072B8002801DBC9
:10083000C0F10040002901DBC1F100418142704755
:1008400030B50B46014600202022012409E021FAA0
:1008500002F59D4205D303FA02F5491B04FA02F59D
:100860002844151EA2F10102F1DC30BD2DE9F05F34
:100870000546002092469B4688460646814640240F
:100880001BE02846414647462246FFF76FFC534689
:100890005A46C01A914110D311461846224600F01C
:1008A00016F82D1A67EB01084F4622460120002159
:1008B00000F00DF817EB00094E41201EA4F10104D1
:1008C000DFDC484631462A464346BDE8F09F202AF1
:1008D00004DB203A00FA02F1002070479140C2F197
:1008E000200320FA03F3194390407047202A06DBC7
:1008F000CB17203A41FA02F043EAE07306E041FAEE
:1009000002F3D040C2F120029140084319467047DB
:100910000029A8BF7047401C490008BF20F0010013
:10092000704710B4B0FA80FC00FA0CF050EA0104F1
:1009300004BF10BC704749B1CCF1200421FA04F483
:1009400011FA0CF118BF012121430843A3EB0C015C
:10095000CB1D4FEA00614FEA102042BF002010BCBF
:10096000704700EBC35010440029A4BF10BC70476F
:10097000401C490008BF20F0010010BC7047F0B4D3
:10098000002802DCF0BC00207047C0F3C751C0F360
:10099000160040F40000CA0701D14000491E3F2262
:1009A00002EB6105002211464FF4000626FA01F31E
:1009B0001344D418844201D8001B1A464000491C35
:1009C0001729F3DD5100814202D24FF0FF3100E0E0
:1009D000002102EBC550F0BCFFF79ABF10B5141E02
:1009E00073F1000408DA401C41F1000192185B41E8
:1009F0001A4301D120F0010010BD2DE9F04D9246BF
:100A00009B4611B1B1FA81F202E0B0FA80F22032D5
:100A10009046FFF75CFF04460F4640EA0A0041EAB1
:100A20000B0153465A46084313D0114653EA0100BE
:100A300019D0C8F140025046FFF798FB05460E4614
:100A4000504659464246FFF742FF084305D0012071
:100A500004E020463946BDE8F08D0020054346EA13
:100A6000E0762C4337430A986305E40AA0EB0800BC
:100A70000022FD0A44EA47540A3002D5002001460C
:100A8000E9E7010510196941DDE9084500196941E7
:100A9000BDE8F04DA2E7C1F30A52C1F3130140F2E1
:100AA000FF3341F480119A4202DA00200146704778
:100AB00040F233439A42A2F2334202DC5242FFF741
:100AC00055BBFFF704BF0000064C074D06E0E06889
:100AD00040F0010394E8070098471034AC42F6D385
:100AE000FFF72AFB707F0008907F0008FEE7704741
:100AF0002DE9F0470D46089F81461C4616463946AB
:100B00001046FFF7ADFB804621462846FFF7A8FBBD
:100B10004146FFF79FFB804621463046FFF7A0FB8A
:100B2000044639462846FFF79BFB2146FFF740FB6A
:100B3000C9E90080BDE8F08772B6FEE72DE9F04F05
:100B40000021202389B005463F240A468A420FDA55
:100B500005EBC100D0E90067CDE9046705EBC206EB
:100B6000D6E9007CC0E9007CDDE90407C6E900079E
:100B7000184603E0091A00EBD07040108842F9DDF6
:100B8000521C0144A242E1DB4020012102E000BFEF
:100B900009F1010100EBD070401089460128F7D11E
:100BA00067E000BFA8F10101022000FA01FB0BEB96
:100BB000DB704FEA600A4FF07E50019000200290F7
:100BC0005046FFF776FD02460B462D482D49FFF7AC
:100BD000DCFC0C46064602F061FAFFF70BFE0390C0
:100BE0003046214602F068FAFFF704FE80F000402C
:100BF0000790AAF101000026069036E0344629E06D
:100C0000029804EB0A07009005EBC7000890D0E9B2
:100C1000001204A8019BFFF76BFF55F834000499FC
:100C2000FFF718FB45F8370005EBC407059978680E
:100C3000FFF710FB01460898416055F8340004990D
:100C4000FFF7B6FA45F8340005997868FFF7B0FA6F
:100C50005C4478603F2CD3DD0798009001A890E8B1
:100C60000E00FFF745FF0698761C8642C6DD08F1A8
:100C700001008046484595DD09B0BDE8F08F0000D1
:100C8000182D4454FB21094010B590F82110002282
:100C9000022905D00421816380F82020012010BDA5
:100CA00001680B6823F00E030B6001680B6823F0EA
:100CB00001030B6090F84030C46B012101FA03F38B
:100CC000636080F8211080F82020104610BD0000DD
:100CD0002DE9F05F90F821100024022903D00421AF
:100CE0008163012485E001680A6822F00E020A602F
:100CF00001680A6822F001020A603F4E3E4FB215B9
:100D0000DFF8F4C0DFF8F090DFF8ECA0DFF8E8B02F
:100D1000DFF8E4E00168783F13011502ACF1640CE0
:100D2000A9F15009AAF13C0AABF1280BAEF1140E5F
:100D30004FF48018B14227D9B9420ED0614512D084
:100D400049451DD0514518D0594518D0714501D19C
:100D5000424615E0294EB14201D1012210E0274E52
:100D60001436B14201D110220AE0244E2836B14295
:100D700006D0224A3C32914201D11A4600E02A466E
:100D80001E49091F0A602BE0B94213D0614517D0F4
:100D9000494522D051451DD059451DD0714501D13D
:100DA00042461AE0B14202D14FF0807215E0134E74
:100DB000B14201D1012210E0104E1436B14201D1EE
:100DC00010220AE00D4E2836B14206D00B4A3C32C2
:100DD000914201D11A4600E02A46074980394A600B
:100DE000012180F82110002180F82010416B01B111
:100DF00088472046BDE8F09F80000240080402407A
:100E000070B5044600F014F90546601C02D0044891
:100E10000078044400F00CF9401BA042FAD370BDE6
:100E20000C0000202DE9F84FDFF8C8910024A9F14B
:100E3000040B23460F2709F1040AABF1040ED1E09D
:100E40000125A54006EA0502AA4276D1DFF8A8C12D
:100E50004E68A6EB0C0866452BD00DDC032E34D073
:100E600005DC36B3012E19D0022E2FD11BE0112E36
:100E700016D0122E2AD119E0B8F5881F19D006DC39
:100E8000B8F5803F15D0B8F5801F1FD111E0B8F537
:100E9000001F0ED0B8F5041F18D10AE0CB6815E08A
:100EA000CB681B1D12E0CB6808330FE0CB680C3316
:100EB0000CE08B682BB1012B4FF0080303D0456188
:100EC00004E0042302E0056100E00023FF2A01D8CA
:100ED000064601E000F104064FEA840501D9A5F1B8
:100EE0002005D6F8008007FA05FC28EA0C0803FA6A
:100EF00005F548EA0508C6F800804D68ED0070D594
:100F00003E4DAE6946F00106AE61AD6924F00306C0
:100F100005F0010500953A4D06EB050CDCF808508C
:100F2000A607360F07FA06F825EA0805DFF8D48089
:100F3000404503D14FF0000825E052E0DFF8C880BB
:100F4000404502D14FF001081DE0DFF8C080404568
:100F500002D14FF0020816E0DFF8B480404502D11C
:100F60004FF003080FE0DFF8AC80404502D14FF0AE
:100F7000040808E0DFF8A080404502D14FF00508E2
:100F800001E04FF0060808FA06F848EA0508CCF830
:100F900008804D68D9F80060ED024D4601D5164332
:100FA00000E096432E604D68DAF80060AD025546C9
:100FB00001D5164300E096432E604D68DBF80060D3
:100FC000AD035D4601D5164300E096432E604D68A3
:100FD000DEF80060ED03754601D5164300E0964348
:100FE0002E60641C0A681646E2407FF429AFBDE813
:100FF000F88F0000080401400000111000100240AA
:101000000000014000080140000C014000100140B8
:101010000014014000180140001C01408068084095
:1010200000D0012070470AB1016170470904FBE755
:1010300001488068704700000C0000200248816869
:1010400002781144816070470C000020074810B5F9
:10105000016841F010010160032000F06DF80F20DD
:1010600000F006F800F024F8002010BD0020024037
:1010700070B50D4D04464FF47A712878B1FBF0F04D
:101080000A490968B1FBF0F000F0D4FA48B9102C15
:1010900007D200222146501E00F02EF800206C607E
:1010A00070BD012070BD00000C0000201800002061
:1010B000094808B5816941F001018161816901F048
:1010C00001010091C16941F08051C161C06900F026
:1010D0008050009008BD000000100240002809DB8D
:1010E00000F01F02012191404009800000F1E02042
:1010F000C0F8001170470000F0B40E4B1B680C469E
:10110000C3F30223C3F10705042D00D90425191DDB
:10111000072901D2002300E0DB1E012606FA05F1B3
:10112000491E214099409E40761E16403143F0BC36
:1011300002F0B4B80CED00E0064900F007020868C0
:101140004FF6FF03184040EA0220034A10430860AC
:10115000704700000CED00E00000FA052DE9F047B3
:101160000F46050061D0434E306800F00700B842DA
:1011700009D2306820F0070038433060306800F052
:101180000700B84251D128683B4C810712D540076F
:1011900003D5606840F4E06060602878000703D5FC
:1011A000606840F4605060606068A96820F0F000FA
:1011B000084360602878C00728D06868012810D0EC
:1011C0002168022810D0890700292EDA616821F0F1
:1011D000030101436160FFF72BFF804641F288392C
:1011E0000DE021688903EFE78901EDE7FFF720FFB4
:1011F000A0EB0801494502D90320BDE8F0876068EB
:10120000696800F00C00B0EB810FEFD1306800F09E
:101210000700B8420BD9306820F00700384330602F
:10122000306800F00700B84201D00120E5E72878D7
:10123000400705D56068E96820F4E0600843606015
:101240002878000706D56068296920F4605040EAD4
:10125000C100606000F038F86168084AC1F303110A
:10126000515CC8400649086006480068FFF700FF67
:101270000020C2E70020024000100240B2420008F5
:101280001800002010000020044805490068496843
:10129000044AC1F30221515CC84070471800002085
:1012A00000100240C242000804480549006849682D
:1012B000044AC1F3C221515CC840704718000020A5
:1012C00000100240C24200080E4A51680E4801F068
:1012D0000C03042B11D0082B0FD10C48C1F383430E
:1012E000C903C05C0AD55168084AC1F34041921E47
:1012F000515C054A5043B0FBF1F070470449484344
:10130000704700000010024000127A00A24200085C
:1013100000093D002DE9F84F040070D02078C04D41
:10132000C00749D06868C0F38100012807D0686809
:10133000C0F38100022809D16868C00306D5286877
:10134000800339D560680028E7D035E06068B0F5E3
:10135000803F0BD010B1B0F5A02F11D0286820F439
:1013600080302860286820F4802002E0286840F45B
:1013700080302860606890B1FFF75AFE06460AE0A8
:10138000286840F480202860F0E700BFFFF750FE97
:10139000801B642873D828688003F7D50CE0FFF71A
:1013A00047FE064605E000BFFFF742FE801B6428AB
:1013B000F0D828688003F7D420789A4E80074FF041
:1013C00001094FF0000839D5686810F00C0F07D0FC
:1013D0006868C0F38100022809D16868C00306D498
:1013E0002868800714D52069012808D110E02069F9
:1013F000B0B1C6F80090FFF71BFE074605E00AE112
:10140000FFF716FEC01B0228C4D828688007F7D54E
:101410002868616920F0F80040EAC10028600DE00A
:10142000C6F80080FFF704FE074604E0FFF700FE61
:10143000C01B022823D828688007F7D4207800072B
:101440002CD57948A169D9B1C0F80090FFF7F0FD1B
:10145000074604E0FFF7ECFDC01B02280FD8686ABE
:101460008007F7D571484FF4FA510068B0FBF1F0EE
:10147000009000BF0098411E0091FAD20EE080E07B
:10148000C0F80080FFF7D4FD074604E0FFF7D0FD69
:10149000C01B022875D8686A8007F7D420784007F7
:1014A00060D5E8690027C00008D4E86940F08050A2
:1014B000E861E869012700F0805000905C4801680D
:1014C000C90513D40168834641F480710160FFF7B8
:1014D000AFFD824606E000BFFFF7AAFDA0EB0A00C1
:1014E00064284ED8DBF80000C005F5D5E068012877
:1014F0000AD008B1052813D0286A20F0010028621C
:10150000286A20F0040002E0286A40F00100286206
:10151000E06841F2883B98B1FFF78AFD82460BE014
:10152000286A40F004002862EEE700BFFFF780FD64
:10153000A0EB0A0159455AD8286A8007F6D50CE075
:10154000FFF776FD824605E0FFF772FDA0EB0A018A
:1015500059454CD8286A8007F6D41FB1E86920F0B5
:101560008050E861E06988B36968C1F381010229AC
:1015700044D00228C6F8608004D0FFF759FD044625
:1015800038E034E0FFF754FD074604E0FFF750FD74
:10159000C01B02282BD828688001F7D4206AB0F538
:1015A000803F05D16868A16820F400300843686076
:1015B000D4E908010843696821F47411084368609C
:1015C000C6F86090FFF734FD044606E025E000BF52
:1015D000FFF72EFD001B022809D828688001F7D5E7
:1015E0001BE000BFFFF724FD001B022802D90320E7
:1015F000BDE8F88F28688001F4D40EE00128F7D008
:101600006868226A00F48031914204D1616A00F472
:101610007010884201D00120EAE70020E8E70000CE
:1016200000100240000042428004424218000020A4
:101630000070004010B5401EB0F1807F01D3012042
:1016400010BD4FF0E02460610F21601701F026FE0D
:101650000020A06107202061002010BD7047704766
:1016600070B590F83C20012A2CD0012480F83C4031
:10167000022280F83D2003685A689D6822F07006B7
:101680000A6832435A60104B02689A420ED00F4BE0
:101690009A420BD0B2F1804F08D00D4B9A4205D040
:1016A0000C4B9A4202D00C4B9A4204D1496825F067
:1016B00080031943916080F83D40002180F83C1080
:1016C000084670BD022070BD002C0140003401406E
:1016D0000004004000080040000C004010B5040069
:1016E00003D094F83D0010B107E0012010BD0020A8
:1016F00084F83C00204600F01FF8022084F83D00EA
:10170000211D206801F0F6FA012084F8460084F8D3
:101710003E0084F83F0084F8400084F8410084F8DB
:10172000420084F8430084F8440084F8450084F8BB
:101730003D00002010BD000008B500680B4988423C
:1017400012D10B48C16941F01001C161C06900228A
:1017500000F01000009011463620FFF7CDFCBDE8E8
:1017600008403620FFF7BABC08BD0000001000405A
:101770000010024090F83D10012901D0012070476F
:10178000022180F83D100168CA6842F00102CA6077
:1017900000680E4988420ED00D4988420BD0B0F146
:1017A000804F08D00B49884205D00B49884202D0AF
:1017B0000A49884204D1816801F00701062903D053
:1017C000016841F00101016000207047002C0140D8
:1017D000003401400004004000080040000C0040BC
:1017E000704770B50446006801694FF00005C943B1
:1017F000890715D4C168C943890711D4E91E01615D
:1018000001202077206880698007204602D0FFF7FA
:10181000E7FF04E000F098F8204600F096F82577FE
:1018200020680169C943490717D4C168C9434907FA
:1018300013D46FF0040101610220207720688069D1
:1018400010F4407F204602D0FFF7CAFF04E000F00A
:101850007BF8204600F079F8257720680169C943B4
:10186000090716D4C168C943090712D46FF00801EB
:101870000161042020772068C0698007204602D0DB
:10188000FFF7AEFF04E000F05FF8204600F05DF8DF
:10189000257720680169C943C90617D4C168C943BF
:1018A000C90613D46FF01001016108202077206869
:1018B000C06910F4407F204602D0FFF791FF04E09A
:1018C00000F042F8204600F040F8257720680169D2
:1018D000C943C90708D1C168C943C90704D1891ED2
:1018E0000161204600F032F820680169C943090609
:1018F00009D4C168C943090605D46FF080010161AC
:101900002046FFF7ABFE20680169C943490609D4A8
:10191000C168C943490605D46FF040010161204602
:1019200000F015F820680169C94389060BD4C16825
:10193000C943890607D46FF0200101612046BDE844
:101940007040FFF78CBE70BD70477047704770479E
:1019500070477047F8B5016804460868CA684B6963
:1019600010F00F0F4FF0000559D003F0010602F4FC
:101970009077374365D0C10705D0D10503D5616C99
:1019800041F001016164410705D5D90703D0616CBD
:1019900041F002016164810705D5D90703D0616C6C
:1019A00041F004016164010707D502F020013143D1
:1019B00003D0616C41F008016164616C00293AD088
:1019C000800604D5900602D5204601F008FA20686A
:1019D0004069616CC0F38010090700D460B32046F1
:1019E00001F0D6F920684069400621D520681430FE
:1019F00050E8001F21F0400140E80012002AF5D114
:101A0000E06BA8B16D494163E06BFFF761F9002815
:101A100011D0E06B416B01B0BDE8F0400847830690
:101A20000FD593060DD52046BDE8F84001F0D7B993
:101A30002046FFF78EFFF8BD2046FFF78AFF65645A
:101A4000F8BD266B2023012E7CD1C6067AD5D6069A
:101A500078D508684868009048694FF0020640064B
:101A600040D5E16B086840680004000CE8D0A28D06
:101A70008242E5D9E085886920282DD020680C3085
:101A800050E8001F21F4807140E80012002AF5D1CF
:101A90002068143050E8001F21F0010140E80012D6
:101AA000002AF5D12068143050E8001F21F04001D1
:101AB00040E80012002AF5D184F8423025632068FE
:101AC0000C3050E8001F21F0100140E80012002AFD
:101AD000F5D1E06BFFF7D8F86663A08DE18D401A71
:101AE00081B22AE0A08DE18D401A81B2E08D0028FC
:101AF000A6D00029A4D022680C3252E8000F20F4AE
:101B0000907042E80007002FF5D12068143050E8AB
:101B1000002F22F0010240E80027002FF5D184F8C1
:101B20004230256320680C3050E8002F22F010026C
:101B300040E80023002BF5D166632046FFF708FF3D
:101B4000F8BDFFE705062BD5150629D594F8410009
:101B50002128F5D1A068B0F5805F01D12069B0B12E
:101B6000206A411C2162216800784860E08C401E98
:101B70000004000CE084E3D12068C16821F08001FA
:101B8000C1602068C16841F04001C160D8E7206AA7
:101B90000088C0F308004860206A801C2062E5E7E6
:101BA0004006CDD55006CBD5CA68204622F040026B
:101BB000CA6084F8413000F01AF9C1E7812D0008AD
:101BC00070B5040004D094F84100002510B106E07F
:101BD000012070BD84F84050204600F023F82420F6
:101BE00084F841002068C16821F40051C16020469A
:101BF00001F056F92068016921F4904101612068E3
:101C0000416921F02A0141612068C16841F4005115
:101C1000C1606564202084F8410084F84200656357
:101C2000002070BD70B586B0002400940194029429
:101C300003942B4E03682B49022003222A4DB34202
:101C400029D18B6943F480438B618B6903F4804312
:101C500004938B6943F004038B618969039201F05B
:101C6000040104910102CDE9001069462846FFF7FE
:101C7000D9F82815CDE90004694628460294FFF7F3
:101C8000D1F8002201212520FFF736FA2520FFF7A1
:101C900025FA06B070BD154EB342FAD1CB6943F4B4
:101CA0000033CB61CB6903F4003304938B6943F0B9
:101CB00004038B618969039201F0040104910421FA
:101CC000CDE9001069462846FFF7ACF80820CDE9B9
:101CD0000004694628460294FFF7A4F8D9E70000FB
:101CE000003801400010024000080140004400405C
:101CF00090F84230202B01D00220704721B11AB158
:101D00000023036301F028B90120704710B50E4A83
:101D10000168914216D10D4C0D4BE18822785A543E
:101D2000491C89B24FF47F62B1FBF2F302FB13113D
:101D3000E1800A21617001222146FFF7D9FF4FF4AB
:101D4000FA60A08010BD00000038014000000020B3
:101D50007C0000202DE9F843044690F841001F461E
:101D600016460D46202802D00220BDE8F8837DB13A
:101D700076B100206064212084F84100FFF758F913
:101D8000A6848046E684A068B0F5805F02D003E0B8
:101D90000120EAE7206910B12E4600250EE000265A
:101DA0000CE08021204601F0F2F8A0B9AEB116F89F
:101DB000010B21684860E08C401EE084E08C4346C3
:101DC0004FF0000200970028EBD14FF04001204671
:101DD00001F0DDF830B10320C7E735F8020BC0F39E
:101DE0000800E6E7202084F841000020BDE77047A6
:101DF000FEE7000070B54FF480711A4D4C00A8B199
:101E000001222846FFF70FF900F02EF801222146A3
:101E10002846FFF708F900F027F800222146284657
:101E2000FFF701F9BDE8704000F01EB800220E4631
:101E30002846FFF7F8F800F017F801222146284657
:101E4000FFF7F1F800F010F8002221462846FFF7CE
:101E5000EAF800F009F831462846BDE87040012252
:101E6000FFF7E1B8000C01400620401EC0B2FCD2D2
:101E7000704700002DE9F0411D4616460F4680468A
:101E800000F0D4F8404600F085F8174C207801287F
:101E900012D0F8B200F07EF8207801280CD000F0C3
:101EA000C5F808F10100C0B200F074F820780128EC
:101EB00002D000246F1E10E00020BDE8F08100BFBA
:101EC00000F03EF806F8010BBC4201D1012000E011
:101ED0000020FFF78FFF641CA4B2AC42F0D300F0E7
:101EE000C7F80120E9E700002C00002070B50E467D
:101EF000044600F09BF8204600F04CF80F4D28787F
:101F0000012818D0304600F045F82878012812D072
:101F100000F08CF8641CE0B200F03CF8287801284E
:101F200009D000F00DF804460120FFF763FF00F030
:101F30009FF8204670BD002070BD00002C000020DE
:101F40002DE9F0410024124E25464FF480784FF4DD
:101F500000776006040E012239463046FFF763F829
:101F6000FFF782FF41463046FFF758F808B1641C7E
:101F7000E4B2002239463046FFF755F8FFF774FF08
:101F80006D1CEDB2082DE4D32046BDE8F0810000C1
:101F9000000C01402DE9F041224E002405464FF48B
:101FA00080787715280601D5012200E000224146FD
:101FB0003046FFF738F8FFF757FF01223946304621
:101FC000FFF731F8FFF750FF002239463046FFF7A0
:101FD0002AF8FFF749FF6806641C050EE4B2082CD6
:101FE000E0D30122444641463046FFF71CF8FFF794
:101FF0003BFF012239463046FFF715F8FFF734FF63
:1020000021463046FFF70AF80100074800D00121B9
:102010000170002239463046FFF705F8BDE8F0416F
:10202000FFF722BF000C01402C00002070B50122F8
:102030000E4D540221462846FEF7F5FF01221602F6
:1020400031462846FEF7EFFFFFF70EFF002231462C
:102050002846FEF7E8FFFFF707FF00222146284643
:10206000FEF7E1FFBDE87040FFF7FEBE000C014047
:1020700070B50C4D4FF48074002221462846FEF7BF
:10208000D2FF012251022846FEF7CDFFFFF7ECFEFA
:10209000012221462846FEF7C6FFBDE87040FFF743
:1020A000E3BE0000000C014070B515460E46044624
:1020B000FFF7BCFF2046FFF76DFF0B4C207801288F
:1020C0000FD03046FFF766FF2078012809D0284658
:1020D000FFF760FF2078012803D0FFF7C9FF012038
:1020E00070BD002070BD00002C0000202DE9F041E3
:1020F00004461D4616460F462A2000F05BFC20468B
:1021000000F04DFC304600F04AFC2B2000F052FC61
:10211000384600F044FC284600F041FCBDE8F041A0
:102120002C2000F047BC10B514460B460246FFF7C2
:10213000DDFF2046BDE8104000F031BC2DE9F0473E
:1021400080461F46581E83B21646501E82B20C4669
:102150004046DDF82090FFF7C9FF0AE0454604E05D
:10216000484600F01CFC6D1CADB2B542F8D3641CAF
:10217000A4B2BC42F2D3BDE8F087000010B5664CB3
:10218000002204212046FEF74EFF6420FEF738FEB1
:10219000012204212046FEF746FF6420FEF730FEB0
:1021A000012240215D48FEF73EFF6420FEF728FE35
:1021B000112000F0FFFB7820FEF722FE362000F011
:1021C000F9FB002000F00AFC3A2000F0F3FB0520A8
:1021D00000F004FCB22000F0EDFB0C2000F0FEFB50
:1021E0000C2000F0FBFB002000F0F8FB332000F097
:1021F000F5FB332000F0F2FBB72000F0DBFB3520CD
:1022000000F0ECFBBB2000F0D5FB322000F0E6FB39
:10221000C22000F0CFFB012000F0E0FBC32000F063
:10222000C9FB152000F0DAFBC42000F0C3FB20201E
:1022300000F0D4FBC62000F0BDFB0F2000F0CEFB69
:10224000D02000F0B7FBA42000F0C8FBA12000F0D4
:10225000C5FBE02000F0AEFBD02000F0BFFB082063
:1022600000F0BCFB0E2000F0B9FB092000F0B6FB2B
:10227000092000F0B3FB052000F0B0FB312000F096
:10228000ADFB332000F0AAFB482000F0A7FB17208D
:1022900000F0A4FB142000F0A1FB152000F09EFB31
:1022A000312000F09BFB342000F098FBE12000F08F
:1022B00081FBD02000F092FB082000F08FFB0E2065
:1022C00000F08CFB092000F089FB092000F086FB60
:1022D000152000F083FB312000F080FB332000F05C
:1022E0007DFB482000F07AFB172000F077FB1420DC
:1022F00000F074FB152000F071FB312000F06EFB44
:10230000342000F06BFB212000F054FBBDE81040AE
:10231000292000F04FBB000000140140000C0140D8
:102320002DE9FF4F81B00446DDF83C9000904FEA64
:1023300059074FF00008780700D0012000EBD700C4
:1023400000FB09FB203AD0B203900298029948445E
:10235000401E83B2E019401E82B22046FFF7C6FE3F
:10236000002553E0B9F10C0F2AD0B9F1100F2ED08F
:10237000B9F1180F2ED0B9F1200F49D12749039890
:1023800001EB8010002610F805A0109800284FF0EF
:10239000010000FA06F000EA0A0022D020B120462F
:1023A000049A0299FFF7BFFE641C0098A4B2201A99
:1023B000B84225D10298009C401C80B2029023E0D4
:1023C0000398174900EB400001EB8000DAE715495C
:1023D000039803E00398144900EB400001EB001060
:1023E000D0E708B1049800E00E9800F0D8FA08F1A0
:1023F0000100C0B2B0FBF7F1804607FB118050B17D
:10240000761CF6B2082EC0D36D1CADB25D45A9D3C3
:1024100005B0BDE8F08F4FF00008F5E7FE5E00085C
:10242000CA4200083E4700082E4D00082DE9FE4F25
:102430009946DDE90D4615468A460746DDF83080A7
:1024400014E00C2C17D0102C20D0182C29D0202CC4
:102450000FD1CDF80080CDE901464B462A465146C2
:10246000384600F09BF9381987B2AD1C287800284F
:10247000E7D1BDE8FE8FCDF80080CDE901464B469F
:102480002A465146384600F017F8ECE7CDF80080B0
:10249000CDE901464B462A465146384600F088F8B9
:1024A000E1E7CDF80080CDE901464B462A4651468A
:1024B000384600F0F7F8D6E72DE9FF4F83B08046A5
:1024C000119D00904FF00009680700D0012000EB3B
:1024D000D50000FB05FB05200026029006EB8600D8
:1024E00000EBC6013148059A10F81130127893427A
:1024F00051D100EB4100019041780598407881422C
:1025000049D1049804992844401E83B208EB050081
:10251000401E82B24046FFF7E9FD002739E00198EE
:10252000002400EB070A12989AF8021000284FF0D6
:10253000010000FA04F001EA000115D021B1404683
:10254000069A0499FFF7EFFD08F101001FFA80F8E1
:102550000098A8EB0000A84215D10498DDF800808F
:10256000401C80B2049012E009B1069800E0109877
:1025700000F015FA09F10100C0B2B0FBF5F1814697
:1025800005FB119078B1641CE4B2082CCBD37F1CFE
:10259000FFB25F45C3D3761C0298B6B286429DD384
:1025A00007B0BDE8F08F4FF00009F0E7BE760008F5
:1025B0002DE9FF4F83B08046119D00904FF0000938
:1025C000680700D0012000EBD50000FB05FB0A20C6
:1025D000002602903248059A06EB061110F81130D9
:1025E0001278934250D100EB410001904178059858
:1025F0004078814248D1049804992844401E83B20F
:1026000008EB0500401E82B24046FFF76FFD002731
:1026100038E00198002400EB070A12989AF802109B
:1026200000284FF0010000FA04F001EA000114D084
:1026300021B14046069A0499FFF775FD08F10100A3
:1026400000991FFA80F8A8EB0100A84214D1049861
:102650008846401C80B2049012E009B1069800E060
:10266000109800F09CF909F10100C0B2B0FBF5F13F
:10267000814605FB119078B1641CE4B2082CCCD3E0
:102680007F1CFFB25F45C4D3761C0298B6B2864267
:10269000A0D307B0BDE8F08F4FF00009F0E70000CD
:1026A000407700082DE9FF4F83B08046119D0090D0
:1026B0004FF00009680700D0012000EBD50000FBB7
:1026C00005FB04200026029006EB860000EB461175
:1026D0003148059A10F811301278934251D100EB2D
:1026E00041000190417805984078814249D1049891
:1026F00004992844401E83B208EB0500401E82B2B4
:102700004046FFF7F3FC002739E00198002400EB76
:10271000070A12989AF8021000284FF0010000FAF8
:1027200004F001EA000115D021B14046069A04994F
:10273000FFF7F9FC08F101001FFA80F80098A8EBF8
:102740000000A84215D10498DDF80080401C80B23A
:10275000049012E009B1069800E0109800F01FF90B
:1027600009F10100C0B2B0FBF5F1814605FB119003
:1027700078B1641CE4B2082CCBD37F1CFFB25F4558
:10278000C3D3761C0298B6B286429DD307B0BDE88B
:10279000F08F4FF00009F0E7947800082DE9FF4F23
:1027A00083B08046119D00904FF00009680700D06B
:1027B000012000EBD50000FB05FB05200026029060
:1027C0003248059A06EB861110F8113012789342C0
:1027D00050D100EB4100019041780598407881424A
:1027E00048D1049804992844401E83B208EB0500A0
:1027F000401E82B24046FFF779FC002738E001987E
:10280000002400EB070A12989AF8021000284FF0F3
:10281000010000FA04F001EA000114D021B14046A1
:10282000069A0499FFF77FFC08F1010000991FFA4E
:1028300080F8A8EB0100A84214D104988846401CF7
:1028400080B2049012E009B1069800E0109800F000
:10285000A6F809F10100C0B2B0FBF5F1814605FB15
:10286000119078B1641CE4B2082CCCD37F1CFFB269
:102870005F45C4D3761C0298B6B28642A0D307B097
:10288000BDE8F08F4FF00009F0E70000BC790008C8
:102890002DE9FF4F83B08346129F1D467E081F49D6
:1028A0001046FDF7DDFCFDF72EFF00241FFA80F92E
:1028B000A2462DE0281B401EC1B20A2001F0D2FC26
:1028C000B9FBF0F00A21B0FBF1F201FB1208A81EDF
:1028D00084420ED1119A00FB06B08DE8840480B2C8
:1028E0002E22109B0499FFF71BFD641C6D1CE4B2A3
:1028F000EDB2119908F130008DE88204C2B204FBF8
:1029000006B080B2109B0499FFF70AFD641CE4B284
:10291000AC42CFD307B0BDE8F08F00000000C84242
:102920002DE9FF4F83B00026DDE911B81D46824630
:102930004FEA58073446B1462CE0281B401EC1B26E
:102940000A2001F08FFC0599B1FBF0F00A21B0FBE1
:10295000F1F201FB120026B9691E8C4201DA58B16E
:1029600001263030C2B204FB07A0CDF800B0CDE99B
:10297000018980B2109B08E0CDF800B004FB07A0ED
:10298000CDE90189109B80B220220499FFF7C8FC91
:10299000641CA4B2AC42D0D307B0BDE8F08F10B530
:1029A0000446000A00F01AF8E0B2BDE8104000F05A
:1029B00015B8000070B5084C0546002220212046BD
:1029C000FEF731FB284600F009F82046BDE87040CC
:1029D00001222021FEF727BB000C014070B5144EE8
:1029E0000546002210213046FEF71DFB0024002280
:1029F00020213046FEF717FB280601D5012200E012
:102A0000002280213046FEF70EFB012220213046B5
:102A1000FEF709FB6806641C050EE4B2082CE6D339
:102A20003046BDE8704001221021FEF7FCBA0000DC
:102A30000008014010B5C0220221AE20FFF734FB90
:102A400000220321AE20FFF72FFB00220421AE203D
:102A5000FFF72AFB00220521AE20FFF725FB00220D
:102A60000621AE20FFF720FB0F220821AE20FFF742
:102A70001BFB03220921AE20FFF716FB27220A21A8
:102A8000AE20FFF711FB32220C21AE20FFF70CFB2A
:102A900032220D21AE20FFF707FB7F221021BDE877
:102AA0001040AE20FFF700BB704700002DE9F04F4B
:102AB00085B00024384800940194029403948169FD
:102AC00041F010018161816901F010010491816977
:102AD00041F020018161816901F020010491816947
:102AE00041F004018161816901F00401049181696F
:102AF00041F0080181618069DFF8A09000F00800D2
:102B000004900122B0214846FEF78DFADFF890A02C
:102B1000012204215046FEF786FADFF888B0012230
:102B200060215846FEF77FFA4FF440780022414674
:102B30005846FEF778FA0325B020012602270395B0
:102B40008DE8C10069464846FEF76CF93003CDE9CF
:102B50000004694648460294FEF764F90420039590
:102B60008DE8C10069465046FEF75CF96020039588
:102B70008DE8C10069465846FEF754F901AA1120B4
:102B8000CDF8008082E8310069465846FEF74AF9E0
:102B900005B0BDE8F08F00000010024000080140C1
:102BA00000140140000C01401CB500240E480094A4
:102BB0000C49019401604721C0E9011440F2E7315A
:102BC0008461C160FEF78AFD08B1FDF7B5FF00948E
:102BD000694605480194FEF743FD002801D0FDF742
:102BE000ABFF1CBD00100040340000200C4810B5A5
:102BF0000A4901604FF416514160002181600C22A6
:102C0000C160C0E904128161C161FEF7D9FF0028EB
:102C100003D0BDE81040FDF78FBF10BD0038014064
:102C20006C1000200C4810B50A4901604FF4E131E6
:102C30004160002181600C22C160C0E90412816101
:102C4000C161FEF7BDFF002803D0BDE81040FDF7CD
:102C500073BF10BD00440040B410002010B54022E6
:102C60000921AE20FFF720FA002800D0012010BD76
:102C7000FEE7FEE770477047FEF7E0B930B58FB06A
:102C800028216846FDF789FA14210AA8FDF785FA7C
:102C900001210804CDE900100024029402250491CA
:102CA000CDE907504FF4E01009906846FEF732FB7B
:102CB00008B172B6FEE70F20CDE90A054FF4806037
:102CC000CDE90C4002210AA80E94FEF747FA00282D
:102CD00001D072B6FEE70FB030BD704710B50348A3
:102CE000FEF77FFD02490120087010BD340000206E
:102CF00008000020F0B502681C4B1D4D1D4E1E4FF4
:102D00001E4C4FF0804C984209D0A04207D060453D
:102D100005D0A84203D0B04201D0B84204D122F07D
:102D2000700E4A6842EA0E02984209D0A04207D0CB
:102D3000604505D0A84203D0B04201D0B84203D1CB
:102D400022F44075CA682A434D6922F080022A4362
:102D500002608A68C2620A688262984201D0A04218
:102D600001D10969016301214161F0BD002C0140DD
:102D70000004004000080040000C00400034014006
:102D800010B5406A0021C185C184FEF7E2FD10BD87
:102D900001680C3151E8002F22F4907241E80023C1
:102DA000002BF5D10168143151E8002F22F0010207
:102DB00041E80023002BF5D1016B012909D10168FD
:102DC0000C3151E8002F22F0100241E80023002BC3
:102DD000F5D1202180F8421000210163704708B529
:102DE00090F84210222901D0022008BD82684FF4D9
:102DF00080539A4201D1016921B1816A9A421BD064
:102E00004AB10AE00268816A5268C2F308020A8085
:102E1000816A891C08E0026972B10268526802F096
:102E20007F020A70816A491C8162C18D491E0904B2
:102E3000090CC18503D01BE002685268F1E7016804
:102E4000CA6822F02002CA600168CA6822F480724F
:102E5000CA6001684A6922F001024A61202180F8B3
:102E6000421000214163026B012A03D0FEF74EFF9E
:102E7000002008BD016301680C3151E8002F22F0E9
:102E8000100241E80023002BF5D101680A68D20640
:102E900002D50A6849680091818DFEF759FDE7E780
:102EA00070B5044600680169E26821F4405111439D
:102EB00001612169A0680843616908432168CA6803
:102EC00041F20C639A430243CA6020684169A269D7
:102ED00021F44071114341611E492068884202D1AA
:102EE000FEF7E2F901E0FEF7CFF900EBC00101EBDC
:102EF0000012606864218000B2FBF0F3B3FBF1F3D1
:102F00006FF018067343B2FBF0F5B2FBF0F605EB79
:102F10008305322303EB0515B5FBF1F5B6FBF1F69E
:102F200005F0F00505EB0615B2FBF0F6B2FBF0F08C
:102F3000B0FBF1F06FF01802504306EB800003EB9A
:102F40000010B0FBF1F0216800F00F002844886009
:102F500070BD00000038014081628285C285002179
:102F60004164222180F84210016921B10168CA68D8
:102F700042F48072CA6001684A6942F001024A6103
:102F80000068C16841F02001C160002070472DE950
:102F9000F041984617460E460446069D27E0681CF9
:102FA00025D02DB1FEF744F8A0EB0800A8421ED9A9
:102FB00020680C3050E8001F21F4D07140E8001266
:102FC000002AF5D12068143050E8001F21F00101DB
:102FD00040E80012002AF5D1202084F8410084F84E
:102FE0004200002084F840000320BDE8F081206802
:102FF000006836EA000004D00020B842CFD000209C
:10300000F3E70120F9E700000148FEF7A3BC000048
:103010006C10002070B5074CA078002808D000255F
:10302000A570FF23E28804490448FEF793FEE5807B
:1030300070BD0000000000207C000020B4100020C3
:1030400006484178012901D9491E4170C9B20129B8
:1030500003D10021417001218170704700000020E0
:10306000FEE700000FB44FF4947110B5CAB06C467F
:103070004EAB20464D9A00F0F7F806E021460123BA
:10308000641C1A460448FEF765FE20780028F5D136
:103090004AB010BC5DF814FB6C10002010B5044A57
:1030A000044BFDF759F9BDE8104000F005B80000E9
:1030B000182D4454FB21F93F2DE9F04F002687B02D
:1030C00004460D46DFF878815E4FDFF87C91DFF82B
:1030D0007CA132463346FDF75DFB02D2012685F026
:1030E00000453A465A4B2046294601F077F80446F7
:1030F0000D463A464346FDF765FB0AD2002E7DD0C9
:1031000000263A46434620462946FDF7C6F90446BE
:103110000D463A464F4B20462946FDF753FB07D252
:103120003A46434620462946FDF7BAF904460D467D
:10313000C8464A46D146534620462946FDF725FA59
:10314000FDF7F5FA0746FDF7B4FA42464B46FDF7A0
:10315000AAF922462B46FDF7A3F904460D4642463E
:103160003D4BFDF72FFB08D242464B4620462946F1
:103170007F1CFDF792F904460D463848224600EBC5
:10318000C701D1E90083C7F1640100EBC100994692
:10319000D0E900739A462B4610461946FDF783F98D
:1031A00022462B46CDE90001FDF77DF983462246F4
:1031B0002B460291FDF777F942464B46FDF773F92E
:1031C0000022274BFDF7E1F9CDE9040158463A46C4
:1031D00053460299FDF767F90022224BFDF7D5F916
:1031E000CDE90201DDE9000142464B46FDF75BF9FE
:1031F0004FF0FF32FDF738FA8B4600E01DE00090FB
:103200003A46534620462946FDF74DF942464B467D
:10321000FDF7A2F85B46009AFDF73FF9DDE90223CE
:10322000FDF73BF9DDE90423FDF796F8002E01D008
:1032300081F0004107B0BDE8F08F012661E7000092
:10324000FB210940182D44541A271792BF15903FAF
:10325000FB211940FB21F93FBF15803F487C000846
:1032600000003840000018407CB50C001D46164692
:10327000014601D0601E00E00020CDE90010064BA1
:103280006A462946304600F0F1F8002C02D0009A38
:10329000002111707CBD0000733B00080907090E76
:1032A000002804DB00F1E02080F80014704700F0F3
:1032B0000F0000F1E02080F8141D704702E008C8FC
:1032C000121F08C1002AFAD170477047002001E0A0
:1032D00001C1121F002AFBD170470000014908609C
:1032E00070470000300000202DE9FF5F82B0002110
:1032F000DDE90430020DDDF840B0034318D044F698
:103300001050A2F2FF3242431514119801281FD029
:10331000A5EB0B00401C5FEA000A4FF000064E4F81
:10332000DFF83891B046504615D5CAF1000413E0D5
:10333000119801244AA3012801D16FEA0B010298D8
:10334000119AC0E90031C0E9024206B0BDE8F09F21
:10335000CBF10000DFE704460021404A491842EB68
:103360000450CDE9001012E0E00707D032463B469A
:1033700040464946FDF797F88046894632463B4627
:1033800010461946FDF78FF806460F466410002CCC
:10339000EAD1DDE90401DDE90023BAF1000F06DA24
:1033A000FDF781F842464B46FDF77DF805E0FDF755
:1033B000ECF842464B46FDF7E8F804460E4600227C
:1033C000284BFDF7FFF903D84FF0FF30014607E027
:1033D0000022254B20463146FCF7BEFFFDF75BFB84
:1033E000102409E0002C0ADB0A220023FDF73EFA34
:1033F000039B30321A55641E50EA0102F2D1641C5C
:10340000039AC4F111031444119A012A03D0012232
:1034100008430DD10AE0084304D000204FF0110BFF
:10342000119072E7A3EB0B056D1E0DE05B4504DD0B
:103430004FF0000205F1010504E003DA4FF000024D
:10344000A5F10105002AECD002981199C0E90231DA
:10345000C0E9004579E70000000014400000F03F9B
:10346000300000000000F0430000E03F2DE9FF4F76
:1034700095B09A46884606460025EEE1252877D184
:1034800000242746F94A0121039400E0044316F87A
:10349000013F203B01FA03F01042F7D130782A288F
:1034A00011D06FF02F033078A0F13002092A16D81E
:1034B000039A44F0020402EB820203EB420210443E
:1034C000761C0390EFE758F8042B0392002A03DAE6
:1034D000504244F40054039044F00204761C3078C7
:1034E0002E2816D116F8010F44F004042A280DD016
:1034F0006FF02F023078A0F13003092B09D807EBC9
:10350000870302EB4303C718761CF3E758F8047BE4
:10351000761C30786C280FD006DC4C2817D0682831
:103520000DD06A2814D104E0742810D07A280FD165
:103530000DE044F400140AE044F4801401E044F483
:1035400040147278824202D104F58014761C761CF5
:10355000307866280BD013DC582877D009DC002897
:1035600075D04528F6D04628F4D047281AD193E1E3
:1035700018E0632835D0642879D0652812D18BE112
:10358000702873D008DC6728F1D069286FD06E28C6
:103590000DD06F2806D1ACE073282CD0752874D0DC
:1035A000782853D05246179990476D1C54E1C4F3C4
:1035B0000250022809D003280DD0D8F800100428A2
:1035C0000DD00D6008F1040846E1D8F80010EA17A4
:1035D000C1E90052F6E7D8F800100D80F2E70D704F
:1035E000F0E718F8041B8DF8001000208DF801009A
:1035F000EB46012003E058F804BB4FF0FF306107B1
:103600004FF0000102D40DE009F101018946B942F1
:103610000FDA8145F8DB1BF809100029F4D108E026
:1036200009F1010189468142FADB1BF809100029E2
:10363000F6D103985346A0EB090721463846179A5E
:1036400000F080FA284400EB090507E044E008E1B7
:103650000DE01BF8010B524617999047B9F101098B
:10366000F7D2534621463846179AF2E039E00A214C
:10367000C4F302524FF0000B0091022A06D058F812
:10368000040BC117032A09D00AE023E008F1070060
:1036900020F00702F2E80201904605E000B2C117EF
:1036A000042A01D140B2C117002906DA0A460021D6
:1036B000404261EB02012D2202E0220504D52B22BB
:1036C0008DF80420012203E0E20701D02022F7E771
:1036D000914657E00A2100E010214FF0000B0091C5
:1036E0000BE010214FF0000B44F004040827009178
:1036F00003E008204FF0000B0090C4F30252022AAE
:1037000005D058F8040B0021032A08D008E008F17E
:10371000070020F00702F2E80201904603E080B2C1
:10372000042A00D1C0B24FF0000922072AD532780E
:10373000702A07D0DDF800C08CF0100C5CEA0B0C8E
:1037400005D00EE040228DF80420012208E050EA66
:10375000010306D030238DF804308DF805200222B5
:103760009146009B83F0080353EA0B030AD150EA09
:10377000010201D1620705D530228DF804204FF0F7
:1037800001097F1E3278582A04D039A20C920CAA63
:1037900002920BE03BA2F9E75B46009AFDF766F860
:1037A0000C9B9B5C029A521E0292137050EA01021B
:1037B000F2D1029804A9081A00F1200B600702D583
:1037C00024F4803400E001275F4502DDA7EB0B0005
:1037D00000E0002000EB0B01009003984944401AE0
:1037E0000390E00306D453462146179A039800F04D
:1037F000A9F90544002706E001A85246C05D1799C3
:1038000090476D1C7F1C4F45F6DBE0030CD55346FB
:103810002146179A039800F095F9054404E03020FA
:103820005246179990476D1C0099481E0090002938
:10383000F5DC08E00298029952460078491C029192
:10384000179990476D1CBBF10001ABF1010BF1DC46
:103850005BE100F065F90544761C307800287FF4C0
:103860000DAE19B02846BDE8F08F00000928010010
:1038700030313233343536373839616263646566E6
:1038800000000000303132333435363738394142A8
:103890004344454600000000600700D4062708F1B5
:1038A000070020F00700F0E80223804603F0004CF8
:1038B0005FEA0C0001D097A009E0200501D596A091
:1038C00005E0E00701D095A001E0AFF24C001390B5
:1038D000307823F0004365280CD006DC452809D059
:1038E00046281DD047287FD13BE0662818D067289E
:1038F0007AD136E00021112F01DB112000E0781C85
:10390000CDE9000104A90CA8FFF7EEFCDDE90D01EB
:103910000C9A4FF0000B07F10109109200914EE054
:103920004FF000400097CDE9011004A90CA8FFF763
:10393000DBFCDDE90D020C9B0F994FF0000B91466B
:103940001093009211B9791C00EB0109B7EB090043
:1039500003D4C0F1FF3B07F10109A9EB0700019077
:1039600042E0012F00DA01270021112F01DD112093
:1039700000E03846CDE9000104A90CA8FFF7B4FC2B
:10398000DDE90D010C9A00914FF0000BB946109241
:1039900021070FD4009A4A4503DA914601E0A9F1C4
:1039A0000109B9F1010F05DD109AA9F10101515C7E
:1039B0003029F4D0B84202DA10F1040F03DA012101
:1039C000CDE9011010E0002803DC8344A9EB0001DD
:1039D00002E0411C494500DD8946A0EB0B00401C7C
:1039E00001904FF000400290200705D4019848450F
:1039F00002DB4FF0FF30019000208DF84B00029861
:103A00000DF14B07B0F1004F25D002200C902B2078
:103A10000D90029800280CDA404202902D200D9063
:103A200007E00A210298FCF70BFF3031029007F8FB
:103A3000011D0C99481E0C900029F2DC0298002808
:103A4000EFD1791E0D980870307800F0200040F01A
:103A5000450007F8020D11A8C01BC01D0290139865
:103A6000007800B1012000EB0901019801EBE07141
:103A7000029801440398401A401E0390E00306D4C4
:103A800053462146179A039800F05CF805441398B2
:103A9000007818B15246179990476D1CE00323D562
:103AA00053462146179A039800F04CF805441BE052
:103AB000BBF1000F07DB0098584504DD10981799FB
:103AC00010F80B0001E017993020524690470198FA
:103AD0000BF1010B401E05F10105019004D12E20D0
:103AE0005246179990476D1CB9F10001A9F10109DF
:103AF000DEDC05E017F8010B5246179990476D1C64
:103B00000299481E02900029F4DC53462146179A78
:103B100003989EE62D0000002B000000200000000E
:103B20002DE9F041044600251E461746880404D4BA
:103B300005E039462020B0476D1C641EF9D52846A3
:103B4000BDE8F0812DE9F041044600251E4690466F
:103B5000C80301D5302700E02027880404D505E0FC
:103B600041463846B0476D1C641EF9D52846BDE86D
:103B7000F0814A68002A06D00A68531C0B60107056
:103B80004868401E4860704710B5044600F08EF942
:103B9000002810D000F018F807480168216040683C
:103BA0000649884202DD0648064901E0FCF7DEFDD1
:103BB000FCF720FE606010BD24000020E1FAC7423F
:103BC0008FC2F5285CFF58402DE9F84F4FF00008F0
:103BD000A74E4746C246C346444606F5207500BF79
:103BE00056F834104046FCF7E3FA804655F8341096
:103BF0003846FCF7DDFA641CA4B20746402CEFD32C
:103C00006FF0050421464046FCF79AFB00902146E0
:103C10003846FCF795FB81465FF00004009956F8A2
:103C20003400FCF717FB46F8340055F834004946D9
:103C3000FCF710FB45F83400641CA4B2402CEDD313
:103C400001246FF0010800BF56F834000121FCF791
:103C500077FB06EBC40757F8081CFCF7A9FAB9680C
:103C6000FCF7A6FA4146FCF76BFB46F8340055F822
:103C700034000121FCF764FB05EBC40757F8081C6E
:103C8000FCF796FAB968FCF793FA4146FCF758FB43
:103C900045F83400641CA4B23F2CD5D300246FF047
:103CA000020800BF06EBC40756F83400B968FCF7F9
:103CB0007FFA3969FCF77CFAB969FCF779FA396A55
:103CC000FCF776FAB96AFCF773FA396BFCF770FA0D
:103CD000B96BFCF76DFA4146FCF732FB46F834004D
:103CE00005EBC40755F83400B968FCF761FA396987
:103CF000FCF75EFAB969FCF75BFA396AFCF758FA27
:103D0000B96AFCF755FA396BFCF752FAB96BFCF754
:103D10004FFA4146FCF714FB45F83400641CA4B28A
:103D2000382CBFD35349002008805148FCF706FFC8
:103D30005148FCF703FF002406EBC400406801462D
:103D4000FCF78EFA074656F834000146FCF788FA6D
:103D50003946FCF72DFA00F08DFA46F8340005EBF1
:103D6000C40040680146FCF77BFA074655F834006A
:103D70000146FCF775FA3946FCF71AFA00F07AFAB0
:103D800046F83400641CA4B2402CD5D35FF0010483
:103D9000504656F83410FCF70BFA824655F83410AA
:103DA0005846FCF705FA641CA4B28346402CEFD3B6
:103DB0001E212F4800F0AAF805461E212E4800F0CB
:103DC000A5F8304E04462A462CA13046FFF74AF9A2
:103DD00022462AA13046FFF745F92846FCF769FC40
:103DE0000022294BFCF75FFB6FF00802FCF73CFC5C
:103DF0000022264BFCF757FB0022254BFCF7ACFAC0
:103E0000FCF7F8FCFCF766FCDFF86880494608F12F
:103E10000808C8F800005046FCF722FA0446584645
:103E20000099FCF71DFA2146FCF74CFAFCF79EFCC2
:103E300005460C46174A184BFCF735FB06460F465D
:103E400028462146154A164BFCF72DFB2A462346E9
:103E5000FCF729FB32463B46FCF77EFA114A124B2F
:103E6000FCF77AFAFCF7C6FCC8F80400BDE8F88F46
:103E7000FC1000201C0000207C13002025640D0A8B
:103E800000000000003801400000594000004E4092
:103E900000003440B4C876BE9F5A3E4048E17A14D0
:103EA000AE8746C0AE47E17A14B6574070B54FF4BE
:103EB00080511248FDF7B2F8114D0026B0B900F05C
:103EC00037F96888FCF7F0FB0E492C8841F834007C
:103ED00001EBC4004660A888FCF7E6FB0A4941F8FC
:103EE000340001EBC400641C46602C802888402804
:103EF00002D32E80012070BD002070BD000801405B
:103F00001C000020FC1000207C1300202DE9F04153
:103F100004240F4606462546D0F820800AE000BF5C
:103F200056F834104046FCF781FC02D256F8348033
:103F30002546641CBC42F3DB2846BDE8F081000046
:103F400086B0FDF783F8FEF799FEFEF7AFFDFEF7AA
:103F50004DFEFEF729FEFEF765FEFEF7A5FDFEF716
:103F60007DFEFEF767FD00244FF48055594E01E0B9
:103F700000F0DEF829463046FDF750F80028F7D06B
:103F8000641CA4B2802CF5D3FEF7F8F84FF6FF744A
:103F9000F02300211A4608460094FEF7CFF84FF0B0
:103FA00000081026CDE900464FF4784745463B46C9
:103FB00049A241463C20CDF80880FEF737FACDE90A
:103FC00000463B4648A2282100200295FEF72EFA23
:103FD000CDE900463B4646A2282150200295FEF737
:103FE00025FACDE900463B4643A250210020029528
:103FF000FEF71CFACDE900463B4641A2782100209D
:104000000295FEF713FA1826CDE900463B463EA27C
:10401000962100200295FEF709FACDE900463B46BD
:104020003BA2B42100200295FEF700FA01223A4992
:104030003A48FDF75DFE3A48FDF79CFBDFF8E49057
:10404000DFF8E4B000254FF0640A00BF99F80010D3
:10405000012921D16D1CA8B240F2E931B0FBF1F287
:1040600001FB120589F80080FEF7EAFFBBF800109B
:10407000012903D9491EABF800100DE04FF4FA6195
:10408000ABF80010FEF7B2FD012223492348FDF7EB
:104090002FFE2649A1F80080B5FBFAF10AFB11506A
:1040A000A8B903A8FFF770FD0097CDE90146039872
:1040B000032382B228213020FEF732FC0097CDE99D
:1040C0000146042328218020049AFEF7E1FBFEF735
:1040D000A1FFBBE700080140D0C4C2CAD1AAD1F5F4
:1040E000B2E2C1BFD2C70000D0C4C2CA3A000000C9
:1040F000D1AAD1F53A000000BEADB6C83A00000022
:10410000CEB3B6C83A000000CAB1BCE43A00000021
:10411000C8D5C6DA3A000000000000206C1000206C
:1041200034000020080000200400002006000020C9
:104130007CB5214C002529466580A580AE20FDF781
:10414000D5FE0121AE20FDF7D1FE07208DF800003D
:10415000014606236A46AE20FDF78CFE9DF800104E
:104160004FF6FF70628800EA813111449DF801200A
:1041700000EA821211449DF8022001EB92018AB2FA
:1041800062809DF80310A38800EA813119449DF8EC
:10419000043000EA831008449DF8051000EB9100FC
:1041A00080B242F21071A080884200D8A5808A4275
:1041B00000D865807CBD00001C00002010B50C46B6
:1041C000FCF7B5FAFCF767FA002C03DA4FF07E51E2
:1041D000FCF740F8BDE81040FCF7C8BA2DE9F047FD
:1041E00014461D46074689460022134620462946A6
:1041F000FCF7D0FA03D100200146BDE8F087224643
:104200002B4638464946FCF7C0F9FFF7D7FF224650
:104210002B46FCF748F93A464B46FCF741F906466F
:1042200088460022134638464946FCF7B3FA01D2C5
:10423000012700E000270022134620462946FCF70C
:10424000A9FA01D2012000E00020874207D02246CF
:104250002B4630464146FCF720F906468846304654
:104260004146CAE70246012000E05043491EC9B258
:10427000FBD2704770B50546FCF781FB044620F081
:104280000040C0F1FF40C00F08D025F00040C0F151
:10429000FF40C00F04BF0120FFF720F8204670BD8B
:1042A000010202030405060708090A0B0C0D0E0F94
:1042B00010100000000000000000010203040607C7
:1042C00008090000000001020304000000000000D3
:1042D00000000000000000000404040404000004C6
:1042E000000014140A00000000000000000000009C
:1042F0000A0A1F0A0A1F0A0A000000040E15050612
:104300000C14150E0400000012150D152E2C2A1287
:1043100000000000040A0A361515291600000202E2
:104320000100000000000000000010080804040460
:10433000040408081000020404080808080804041B
:10434000020000000004150E0E150400000000001D
:104350000008083E080800000000000000000000FF
:1043600000000202010000000000003F0000000009
:10437000000000000000000000000002000000201B
:104380001010080804040202010000000E111111AF
:104390001111110E00000000040604040404040EB0
:1043A000000000000E1111080402011F00000000AF
:1043B0000E11100C1010110E00000000080C0C0A59
:1043C000091F081C000000001F01010F1110110E31
:1043D000000000000C12010D1311110E000000006E
:1043E0001E10080804040404000000000E11110E41
:1043F0001111110E000000000E11111916100906FE
:1044000000000000000004000000000400000000A4
:104410000000000400000004040000001008040272
:10442000020408100000000000003F003F000000F0
:104430000000000002040810100804020000000040
:104440000E11110804040004000000001C22292D94
:104450002D1D221C0000000004040C0A0A1E123349
:10446000000000000F12120E1212120F00000000C6
:104470001E1101010101110E000000000F121212A5
:104480001212120F000000001F120A0E0A02121F61
:10449000000000001F120A0E0A02020700000000BE
:1044A0001C1201013911120C000000003312121EFF
:1044B00012121233000000001F0404040404041F3D
:1044C000000000003E080808080808080907000066
:1044D00037120A060A121237000000000702020211
:1044E0000202223F000000003B1B1B1B1515153567
:1044F000000000003B1216161A1A121700000000E6
:104500000E1111111111110E000000000F12120EE8
:1045100002020207000000000E1111111117190EFE
:10452000180000000F12120E0A12123700000000CD
:104530001E1101060810110F000000001F150404D1
:104540000404040E00000000331212121212120CA6
:10455000000000003312120A0A0C040400000000DC
:10456000151515150E0A0A0A000000001B0A0A0498
:10457000040A0A1B000000001B0A0A0A0404040EB5
:10458000000000001F0908040402121F00001C04A0
:1045900004040404040404041C00000202040404CF
:1045A0000808081010000E0808080808080808087D
:1045B0000E00040A000000000000000000000000DF
:1045C0000000000000000000003F020400000000A6
:1045D00000000000000000000000000C121C123C53
:1045E000000000030202020E1212120E0000000070
:1045F0000000001C1202120C000000181010101C09
:104600001212123C000000000000000C121E021CDE
:10461000000000182404041E0404041E000000000E
:104620000000003C120C021C221C00030202020EBD
:104630001212123700000004040000060404040EE5
:10464000000000080800000C08080808080700031C
:104650000202021A0A060A130000000704040404F6
:104660000404041F000000000000000F15151515BC
:10467000000000000000000F1212123700000000BE
:104680000000000C1212120C000000000000000FCD
:104690001212120E020700000000001C1212121C5F
:1046A000103800000000001B060202070000000096
:1046B0000000001E020C101E000000000004041E7A
:1046C0000404041C000000000000001B1212123C35
:1046D000000000000000001B0A0A040400000000A3
:1046E00000000015150E0A0A000000000000001B63
:1046F0000A040A1B000000000000003312120C081C
:10470000040300000000001E0804041E0000180836
:104710000808080C0808080818000808080808080D
:10472000080808080808060404040408040404042B
:104730000600160900000000000000000000000054
:104740000000000000000000000000000000000069
:1047500000080808080808080000181800000048A9
:104760006C241200000000000000000000000000A7
:10477000002424247F1212127F1212120000000063
:10478000081C2A2A0A0C1828282A2A1C08080000B3
:104790000022251515152A585454542200000000F3
:1047A000000C1212120A76252911916E00000006E3
:1047B00006040300000000000000000000000040AC
:1047C00020101008080808080810102040000002F7
:1047D000040808101010101010080804020000004F
:1047E000000008086B1C1C6B08080000000000009B
:1047F0000000080808087F080808080000000000FA
:104800000000000000000000000006060403000095
:10481000000000000000FE0000000000000000009A
:10482000000000000000000000000606000000007C
:1048300080404020201010080804040202000000FC
:104840000018244242424242424224180000000022
:1048500000080E08080808080808083E00000000C4
:10486000003C4242422020100804427E000000002A
:10487000003C4242201820404042221C0000000020
:1048800000203028242422227E20207800000000EE
:10489000007E0202021A26404042221C0000000054
:1048A00000382402021A2642424224180000000066
:1048B000007E2222101008080808080800000000E6
:1048C000003C4242422418244242423C0000000084
:1048D00000182442424264584040241C000000005A
:1048E0000000000018180000000018180000000068
:1048F000000000000008000000000008080400009C
:1049000000402010080402040810204000000000AD
:10491000000000007F0000007F0000000000000099
:1049200000020408102040201008040200000000CB
:10493000003C4242464020101000181800000000C1
:10494000001C225A555555552D42221C00000000CE
:10495000000808181414243C224242E7000000001A
:10496000001F2222221E22424242221F000000007B
:10497000007C4242010101010142221C00000000B2
:10498000001F2242424242424242221F00000000D7
:10499000003F4212121E12120242423F000000006B
:1049A000003F4212121E1212020202070000000013
:1049B000003C2222010101712122221C0000000082
:1049C00000E7424242427E42424242E7000000008B
:1049D000003E0808080808080808083E0000000013
:1049E000007C10101010101010101010110F00008B
:1049F000007722120A0E0A1212222277000000000B
:104A000000070202020202020202427F00000000CE
:104A10000077363636362A2A2A2A2A6B000000000A
:104A200000E346464A4A5252526262470000000082
:104A3000001C2241414141414141221C0000000033
:104A4000003F424242423E020202020700000000D2
:104A5000001C2241414141414D53321C6000000085
:104A6000003F4242423E1212222242C70000000092
:104A7000007C4242020418204042423E00000000F6
:104A8000007F4908080808080808081C0000000002
:104A900000E74242424242424242423C00000000A1
:104AA00000E74242222424141418080800000000E1
:104AB000006B494949495555362222220000000021
:104AC00000E7422424181818242442E700000000BC
:104AD00000772222141408080808081C00000000AF
:104AE000007E2120101008040442423F000000789C
:104AF00008080808080808080808080878000000DE
:104B00000202040408080810102020204040001E63
:104B10001010101010101010101010101E0000387F
:104B20004400000000000000000000000000000041
:104B300000000000000000000000000000FF000670
:104B4000080000000000000000000000000000005D
:104B500000000000003C4278444242FC000000009B
:104B600000030202021A26424242261A00000000F6
:104B70000000000000384402020244380000000037
:104B80000060404040784442424264D80000000047
:104B900000000000003C427E0202423C0000000097
:104BA00000F08808087E08080808083E0000000099
:104BB00000000000007C22221C023C42423C00001B
:104BC00000030202023A4642424242E7000000006D
:104BD000000C0C00000E08080808083E0000000049
:104BE000003030000038202020202020221E00002D
:104BF000000302020272120A16122277000000005D
:104C0000000E0808080808080808083E0000000010
:104C100000000000007F9292929292B70000000084
:104C200000000000003B4642424242E70000000014
:104C300000000000003C42424242423C00000000B2
:104C400000000000001B26424242221E0207000014
:104C500000000000007844424242447840E00000F6
:104C60000000000000774C040404041F0000000052
:104C700000000000007C42023C40423E0000000078
:104C800000000008083E080808080830000000007E
:104C90000000000000634242424262DC000000006B
:104CA0000000000000E7422424140808000000006F
:104CB0000000000000EB4949555522220000000089
:104CC00000000000007624181818246E0000000070
:104CD0000000000000E74224241418080807000020
:104CE00000000000007E22100808447E000000C082
:104CF000202020202010202020202020C000101064
:104D000010101010101010101010101010100006BD
:104D100008080808081008080808080806000C32E7
:104D2000C2000000000000000000000000000000C1
:104D30000000000000000000000000000000000073
:104D40000000000000000000000000000000000063
:104D50000000000000000000000000000000000053
:104D60000000000000006000600060006000600063
:104D700060006000400020002000200000000000D3
:104D80000000600060006000000000000000000003
:104D900000006006600630039801880044000000AF
:104DA0000000000000000000000000000000000003
:104DB00000000000000000000000000000000000F3
:104DC0000000000000001002100210021002FE0796
:104DD000FE0708020801080108010801FE07FE0796
:104DE00004010401040104010000000000000000AF
:104DF0000000000040004000F00158034C03CC03C9
:104E00004C0058007000E000C001C00140034C039A
:104E10005C034C034801F00040004000000000002B
:104E20000000000000000E010A01910091009100B5
:104E3000510051003A00AE03A0025004500448044F
:104E400048044804840284030000000000000000BD
:104E500000000000000038006C006C006C006C006A
:104E60006C002C0098071C011A0133013301630107
:104E7000E300C308C6093C07000000000000000072
:104E800000000C001C0010001000080004000000CE
:104E90000000000000000000000000000000000012
:104EA0000000000000000000000000000000000002
:104EB000000000040002000180008000400040006B
:104EC00020002000200020002000200020004000C2
:104ED000400080008000000100020004000000008B
:104EE0000000020004000800100010002000200054
:104EF00040004000400040004000400040002000D2
:104F00002000100010000800040002000000000053
:104F1000000000000000000000004000C000400051
:104F2000460C4E0FD001F0015E0F460C40004000D1
:104F30004000000000000000000000000000000031
:104F400000000000000000000000000040004000E1
:104F5000400040004000FE0F400040004000400084
:104F60004000000000000000000000000000000001
:104F70000000000000000000000000000000000031
:104F80000000000000000000000000000000000021
:104F900000000C001C0010001000080004000000BD
:104FA0000000000000000000000000000000000001
:104FB000000000000000FE070000000000000000EC
:104FC00000000000000000000000000000000000E1
:104FD00000000000000000000000000000000000D1
:104FE00000000000000000000000000000000000C1
:104FF00000001C001C001C0000000000000000005D
:10500000000000040006000200030001000180000F
:1050100080004000400060002000200010001000D0
:10502000080008000C000400060002000000000058
:105030000000000000000000F00098010C030C03C9
:105040000606060606060606060606060606060600
:105050000C030C039801F0000000000000000000A9
:10506000000000000000000040007C0060006000C4
:105070006000600060006000600060006000600030
:10508000600060006000FC03000000000000000001
:105090000000000000000000F80084010203060385
:1050A0000603000300018001C00060002000100022
:1050B000080204020602FE030000000000000000D7
:1050C00000000000000000007800C6008601860194
:1050D00080018001C0007000800100010003000316
:1050E000060306038601F80000000000000000002F
:1050F000000000000000000080018001C001A0014C
:10510000A00190018801880184018201FE0F8001C5
:10511000800180018001E007000000000000000025
:105120000000000000000000FC0304000400040074
:1051300004000400F4008C010403000300030603D0
:10514000060382018401F800000000000000000056
:105150000000000000000000E00118030C030C0038
:1051600004000600E60116030E06060606060606FD
:1051700004060C021803F00000000000000000000C
:105180000000000000000000F8070C060402040103
:1051900000010001800080004000400040006000ED
:1051A000600060006000600000000000000000007F
:1051B0000000000000000000F8010C0306060606CF
:1051C00006060C021C03F000C8010C0306060606C6
:1051D000060606060C03F0010000000000000000B7
:1051E0000000000000000000F0000C010C030602AB
:1051F00006060606060606078C0678060006000365
:1052000000030C018C017800000000000000000089
:10521000000000000000000000000000000000008E
:105220000000E000E000E0000000000000000000DE
:105230000000E000E000E0000000000000000000CE
:10524000000000000000000000000000000000005E
:10525000000060006000000000000000000000008E
:1052600000000000600060004000200020000000FE
:105270000000000000000004000200018000400067
:10528000200010000800040008001000200040006A
:105290008000000100020004000000000000000087
:1052A00000000000000000000000000000000000FE
:1052B0000000FE07000000000000FE0700000000E4
:1052C00000000000000000000000000000000000DE
:1052D0000000000000000400080010002000400052
:1052E0008000000100020004000200018000400074
:1052F0002000100008000400000000000000000072
:105300000000000000000000E0031806040C040C7C
:105310000C0C0C0C00078001400040004000000015
:105320000000E000E000E0000000000000000000DD
:10533000000000000000E00018030C02CC0564052A
:105340006605A605B604B604B604B604B602E401C2
:105350000C040C021803F000000000000000000024
:105360000000000000000000600060005000D0005D
:1053700090009000880088010801F80104030403EC
:105380000402020202060F0F0000000000000000ED
:105390000000000000000000FE008C030C030C0362
:1053A0000C030C038C01FC000C030C020C060C0615
:1053B0000C060C060C03FE010000000000000000BB
:1053C0000000000000000000E00318030C060C04BD
:1053D0000404060006000600060006000600060497
:1053E0000C040C021803F000000000000000000094
:1053F00000000000000000007F008C010C030C0383
:105400000C060C060C060C060C060C060C060C060C
:105410000C030C038C017F00000000000000000062
:105420000000000000000000FF030603060406045D
:10543000060086008600FE008600860086000600C4
:10544000060406040602FF0300000000000000003E
:105450000000000000000000FF030603060406042D
:10546000060086008600FE00860086008600060094
:105470000600060006001F000000000000000000FB
:105480000000000000000000F00018010C020C02F7
:1054900004020600060006000600C60F0603060307
:1054A0000C030C031803F0000000000000000000D3
:1054B00000000000000000000F0F060606060606AA
:1054C000060606060606FE07060606060606060683
:1054D0000606060606060F0F00000000000000008A
:1054E0000000000000000000FC036000600060009D
:1054F00060006000600060006000600060006000AC
:10550000600060006000FC0300000000000000007C
:105510000000000000000000F807C000C000C0004C
:10552000C000C000C000C000C000C000C000C0007B
:10553000C000C000C000C000C60066003C00000003
:105540000000000000000000CF038601C6004600F6
:105550002600160036002E006E004600C6008600AB
:105560008601060106038F0700000000000000000E
:1055700000000000000000001F00060006000600FA
:1055800006000600060006000600060006000600EB
:10559000060406040602FF030000000000000000ED
:1055A00000000000000000000707860386038E034A
:1055B0008E034E034E034A035A035A033A0332033F
:1055C00032033203120387070000000000000000CE
:1055D00000000000000000008E0F0C021C021C02E4
:1055E00034023402640264024402C402840284036A
:1055F0008403040304031F020000000000000000F5
:105600000000000000000000F00098010C030C02F4
:10561000060606060606060606060606060606062A
:105620000C020C039801F0000000000000000000D4
:105630000000000000000000FF000603060606064A
:105640000606060606068603FE000600060006009D
:105650000600060006001F00000000000000000019
:105660000000000000000000F00098010C030C0294
:10567000060606060606060606060606060676065A
:105680004C02CC039801F0008007000300000000EA
:105690000000000000000000FF01060306060606E9
:1056A000060606060603FE004600C60086008601C2
:1056B0000603060306060F0E0000000000000000AF
:1056C0000000000000000000F8020C0306020602C1
:1056D00006000E003C00F800E0038003000702060D
:1056E000020606060C03F0010000000000000000A6
:1056F0000000000000000000FE076204610861086D
:105700006000600060006000600060006000600099
:10571000600060006000F801000000000000000070
:1057200000000000000000001E070C020C020C022A
:105730000C020C020C020C020C020C020C020C02F9
:105740000C020C021801F000000000000000000034
:1057500000000000000000000F0706020401040121
:105760000C010C018800880098009800500050003F
:105770007000300020002000000000000000000049
:105780000000000000000000F70E6204420446041E
:10579000460464026402E402E4029C029C01980153
:1057A00098018801880088000000000000000000C7
:1057B00000000000000000009E070C010801180115
:1057C0009000B0006000200060006000D0009000F9
:1057D0008801080104038E0700000000000000009B
:1057E00000000000000000000F0F060404020C027D
:1057F00008011801B800B00070006000600060008F
:10580000600060006000F80100000000000000007F
:105810000000000000000000FC070C02060302016B
:10582000800180004000400020002000100018008F
:1058300008040C040402FE03000000000000000045
:105840000000E003200020002000200020002000B5
:105850002000200020002000200020002000200048
:1058600020002000200020002000E00300000000B5
:105870000000000000000400040008000800100000
:10588000100010002000200040004000C0008000F8
:10589000800000010001000200020002000400007C
:1058A00000007C00400040004000400040004000FC
:1058B00040004000400040004000400040004000E8
:1058C000400040004000400040007C00000000001C
:1058D00060009000080100000000000000000000CF
:1058E00000000000000000000000000000000000B8
:1058F00000000000000000000000000000000000A8
:105900000000000000000000000000000000000097
:105910000000000000000000000000000000000087
:10592000000000000000000000000000FF0F000069
:1059300000001800600000000000000000000000EF
:105940000000000000000000000000000000000057
:105950000000000000000000000000000000000047
:105960000000000000000000000000000000000037
:105970000000F0010C030C030003E0031C030E0302
:10598000060306038E0B7C0E0000000000000000E2
:1059900000000000000008000E000C000C000C00CD
:1059A0000C00CC013C031C060C060C060C060C0675
:1059B0000C060C021C03E4010000000000000000C3
:1059C00000000000000000000000000000000000D7
:1059D0000000F0008C018C01860106000600060024
:1059E00006020C020C01F0000000000000000000A4
:1059F0000000000000000002C003000300030003D9
:105A0000000378038C030C03060306030603060356
:105A1000060304038C07780100000000000000006A
:105A20000000000000000000000000000000000076
:105A30000000E001180308020C060C06FC070C002D
:105A40000C0018041802E001000000000000000033
:105A50000000000000000000C003600630063000B7
:105A60003000FE01300030003000300030003000E7
:105A7000300030003000FC01000000000000000099
:105A80000000000000000000000000000000000016
:105A90000000F007D8068C018C018C019801F800F9
:105AA0000C00FC00CC03060306038E03F800000084
:105AB00000000000000008000E000C000C000C00AC
:105AC0000C00EC011C030C030C030C030C030C0373
:105AD0000C030C030C039E070000000000000000F4
